S00D00005349425F312E73726563A9
S11300000C945A000C9493030C9477000C9477008E
S11300100C9477000C9477000C9477000C94770080
S11300200C9477000C9477000C9477000C94E703FD
S11300300C9477000C9477000C94CB020C9477000A
S11300400C9477000C9477000C9465030C9477005F
S11300500C9477000C94E0020C9477000C947700D5
S11300600C94BC030C9477000C9477000C947700E8
S11300700C9477000C9477000C9477000C94770020
S11300800C9477000C9477000C9477000C94770010
S11300900C9477000C9477000C9477000C94770000
S11300A00C9477000C9477000C9477000C947700F0
S11300B00C94770011241FBECFEFD8E0DEBFCDBF74
S11300C013E0A0E0B1E0E0ECF3E102C005900D9292
S11300D0A036B107D9F725E0A0E6B3E001C01D9230
S11300E0A934B207E1F70E9432060C94DE090C949D
S11300F00000219A87B187B987B187B987B187B9D9
S11301008AB18AB9519A8AB18AB98AB18AB98AB14B
S11301108AB98AB18AB98AB18AB98AB18AB984B1E9
S113012084B9239A2B9A3C9A449A0895F62FE72F80
S11301306417750710F4F42FE52F2F2F3E2F28177F
S1130140390708F49C01B62FA72F4617570710F458
S1130150B42FA52FEB2FFA2F8E179F0708F4FC015D
S11301608217930719F08E179F0771F462177307AC
S113017031F06E177F0731F0862F972F0895842F63
S1130180952F0895842F952F0895E89AE9E6F0E0D5
S113019080818C7F808378940895229A239A259A6B
S11301A02A9A2B982D988CB580658CBD8CB583606C
S11301B08CBD08958EBD0DB407FEFDCF87EC90E095
S11301C00197F1F700C000008EB508951F93CF93F7
S11301D0DF93182FD62FC42F2A9885E00E94DA00C7
S11301E0812F0E94DA008D2F0E94DA008C2F0E944A
S11301F0DA002A9ADF91CF911F9108952A980E94DC
S1130200DA008FEF0E94DA002A9A0895CF92DF92E3
S1130210EF92FF920F931F93CF93DF931F92CDB76B
S1130220DEB76C0180EB0E94FE0089839981892FDF
S1130230807496FD06C0998199230CF05DC084E911
S113024001C080E92A980E94DA008FEF0E94DA0048
S113025028E0829FC0011124F601918380838FEFEF
S11302600E94DA00282F229526952770F6018081B6
S11302709181822B918380838FEF0E94DA008FEF2C
S11302800E94DA008FEF0E94DA008F70282F220F6D
S1130290F6019281917E922B9283298123FB22275E
S11302A020F920FB90F992838823A1F086010D5F49
S11302B01F4F8150E82EF12CF4E0EF0EF11CEC0CF2
S11302C0FD1C8FEF0E94DA00F80181938F01EE1577
S11302D0FF05B9F72A9A898186FF06C040E061E0EC
S11302E08CE20E94E60005C040E062E08CE20E94DD
S11302F0E600898187708F5F0F90DF91CF911F9106
S11303000F91FF90EF90DF90CF900895BF92CF921E
S1130310DF92EF92FF920F931F93CF93DF931F927D
S1130320CDB7DEB76C0180EA0E94FE008983898123
S113033082FF0AC0898184FF09C0898186FD69C062
S11303406894BB24B2F805C0B12C03C06894BB24E4
S1130350B1F82A988B2D80640E94DA00D6018D9121
S11303609C919695879596958795969587950E94E5
S1130370DA00F60180818295880F807E0E94DA007F
S113038080E00E94DA0080E00E94DA00D601129632
S11303908C91E82EE694BE2DBF70EB2E80FF05C035
S11303A08B2F80640E94DA0017C08B2F0E94DA0022
S11303B0EE2091F086010D5F1F4FEA94F12CE4E0EA
S11303C0EE0EF11CEC0CFD1CD8018D918D010E94E8
S11303D0DA000E151F05C1F72A9AB5E0BA95F1F7B0
S11303E000002A98B11002C0BB24B3948B2D8068FE
S11303F00E94DA002A9AF601118210828281807E9C
S11304008283339688E0DF011D928A95E9F78B2D6C
S113041001C080E00F90DF91CF911F910F91FF9069
S1130420EF90DF90CF90BF9008959093C500809394
S1130430C400E1ECF0E0808188698083E2ECF0E0C4
S11304408081866080830895E0ECF0E080818823D9
S1130450ECF78091C6000895E0ECF0E0908195FF00
S1130460FDCF8093C6000895CF92DF92EF92FF9262
S11304700F931F93CF93DF93CDB7DEB72B970FB6B0
S1130480F894DEBF0FBECDBFE982FA820B831C83D2
S11304902D833E834F83588769877A878B87C980EA
S11304A0DA8006950F70C60196958795969587957F
S11304B0969587950E942C028B8181708295807F0E
S11304C0CC0CCC0CCC0CCC0CCC0C8C29802B0E94EE
S11304D02C028B8180FD17C0E02EF12C1E141F040A
S11304E094F480E090E010E0E4E0F0E0EC0FFD1F15
S11304F0E80FF91F80810E942C021F5F812F90E07A
S11305008E159F058CF32B960FB6F894DEBF0FBEA5
S1130510CDBFDF91CF911F910F91FF90EF90DF90AE
S1130520CF9008951092C50087E68093C40088E0B8
S11305308093C10086E08093C2000895E0ECF0E06F
S1130540908195FFFDCF8093C6000895CF93DF93EC
S1130550EC018881882331F021960E949E028991C2
S11305608111FBCFDF91CF91089510927C008EEC26
S113057080937A0081EC80937E0008958DE487BD9A
S113058084B5826084BD84E085BDEEE6F0E08081C0
S11305908260808308951F920F920FB60F921124E8
S11305A08F93EF93FF93EAE7F0E080818064808388
S11305B0FF91EF918F910F900FBE0F901F901895A0
S11305C01F920F920FB60F9211242F938F939F9324
S11305D0EF93FF9380916803853031F08091680335
S11305E08F5F8093680302C0109268038091680350
S11305F080FF61C08091780090E090936A038093BB
S11306006903209179008091690390916A03922B88
S113061090936A038093690380916803853040F561
S113062080916803813081F4E0916B0380916903C8
S113063090916A03F0E0EE0FFF1FEA50FC4F9183A4
S1130640808386E080937C0080916803833081F40A
S1130650E0916B038091690390916A03F0E0EE0FDF
S1130660FF1FEE51FC4F9183808387E080937C00D1
S1130670809168038530E1F4E0916B038091690314
S113068090916A03F0E0EE0FFF1FE556FC4F918353
S1130690808310927C0080916B03893030F48091C8
S11306A06B038F5F80936B0303C010926B03199AE3
S11306B081E080936703FF91EF919F918F912F9138
S11306C00F900FBE0F901F9018951F920F920FB6A8
S11306D00F9211242F933F934F935F936F937F93C4
S11306E08F939F93AF93BF93EF93FF938091C00039
S11306F0882344F00E942402809321048EE194E034
S11307000E948601FF91EF91BF91AF919F918F91CC
S11307107F916F915F914F913F912F910F900FBEF9
S11307200F901F9018951F920F920FB60F921124DD
S11307302F933F934F935F936F937F938F939F93E5
S1130740AF93BF93EF93FF938FEA93E00E94060168
S113075081E080936D03FF91EF91BF91AF919F91E1
S11307608F917F916F915F914F913F912F910F9056
S11307700FBE0F901F9018951F920F920FB60F92F5
S113078011248F938091B9008C7F809365038F919E
S11307900F900FBE0F901F901895ECEBF0E0808146
S11307A084608083808181608083A9EBB0E08C9138
S11307B081608C9383E08093B80080818062808321
S11307C080818068808380818062808308951F9205
S11307D00F920FB60F9211242F933F934F935F9371
S11307E06F937F938F939F93AF93BF93EF93FF93F5
S11307F08091BC0080916403833040F48091640351
S11308008F5F809364030E94CD0305C081E08093D1
S113081064030E94CD038091600390916103A091D1
S11308206203B09163030196A11DB11D809360031F
S113083090936103A0936203B0936303FF91EF91DC
S1130840BF91AF919F918F917F916F915F914F91E4
S11308503F912F910F900FBE0F901F901895EF921C
S1130860FF920F931F93CF93DF93E0916C03F0E01B
S1130870EE0FFF1FEA50FC4F00811181E0916C03E1
S1130880F0E0EE0FFF1FEE51FC4FE080F180E091AD
S11308906C03F0E0EE0FFF1FE556FC4FC081D181E1
S11308A0A0916C03E0916C03B0E0AA0FBB1FAA50A7
S11308B0BC4FF0E0EE0FFF1FEC50FC4F6D917C91AC
S11308C0408151814617570760F4E0916C03F0E0D2
S11308D0EE0FFF1FEC50FC4F8081402F481B842FEC
S11308E009C0E0916C03F0E0EE0FFF1FEC50FC4FE9
S11308F08081801BA0916C03E0916C03B0E0AA0F8F
S1130900BB1FAE51BC4FF0E0EE0FFF1FE052FC4F97
S11309106D917C91408151814617570760F4E091B5
S11309206C03F0E0EE0FFF1FE052FC4F40815E2DA0
S1130930541B452F09C0E0916C03F0E0EE0FFF1F3C
S1130940E052FC4F40814E19A0916C03E0916C037E
S1130950B0E0AA0FBB1FA556BC4FF0E0EE0FFF1F7F
S1130960E756FC4F0D90BC91A02D608171816A17F0
S11309707B0758F4E0916C03F0E0EE0FFF1FE7569D
S1130980FC4F50816C2F651B09C0E0916C03F0E0B3
S1130990EE0FFF1FE756FC4F60816C1B833308F09A
S11309A0AFC0433320F4633308F0A6C019C052E04B
S11309B05093660371E0433308F470E051E08333ED
S11309C008F450E0570F71E0633308F470E0570FF8
S11309D05130B9F028F0523001F1533029F142C0BE
S11309E00E151F0529F10C171D0729F1EC16FD063C
S11309F029F1AE01B701C8010E9496009C0193E061
S1130A0031C00E151F05E9F00C171D07E9F0EC16AF
S1130A10FD06E9F49E0192E025C08333D0F0433310
S1130A20D8F09E0191E01EC02FEF30E090E01AC094
S1130A30980193E017C09E0193E014C09E0193E0D7
S1130A4011C0970192E00EC09E0192E00BC092E0AB
S1130A5009C0980191E006C0970191E003C02FEF0F
S1130A6030E090E0A8010E151F0508F4A701E01678
S1130A70F10608F48701BE010C171D0708F4B8013C
S1130A80EBE0F1E0138214821582822F880F880F25
S1130A90982B9683C417D50708F4EA01C61BD70B15
S1130AA044E64C9FC0014D9F900D11240E94E00626
S1130AB06295607F329522952F7023273F702327FC
S1130AC0262B209312018EE091E09F938F938EE06A
S1130AD093E09F938F938EE693E09F938F930E946E
S1130AE0F4068EE693E00E94A6020F900F900F90FA
S1130AF00F900F900F9021C082E08093660381CF06
S1130B0052E05093660351E0833308F450E081E0EF
S1130B10433308F480E0850F51E0633308F450E078
S1130B20850F813009F46DCF08F45ACF823009F46F
S1130B3076CF833009F493CF95CFDF91CF911F9176
S1130B400F91FF90EF900895DF92EF92FF920F9331
S1130B501F93CF93DF93CDB7DEB7E5970FB6F89425
S1130B60DEBF0FBECDBF80916703882309F46CC03C
S1130B70F89480916803813049F4E0916B03F0E0CC
S1130B80EE0FFF1FEA50FC4FE080D1808091680394
S1130B90833069F4E0916B03F0E0EE0FFF1FEE5138
S1130BA0FC4FE080D1806894FF24F1F802C0FF2458
S1130BB0F39480916803853079F4E0916B03F0E05D
S1130BC0EE0FFF1FE556FC4FE080D1800E942F04FA
S1130BD00F2EF3E0FF2EF02D80916B031F928F9365
S1130BE082E293E09F938F938E010B5E1F4F1F93BE
S1130BF00F930E94F406C8010E94A6021F92FF925E
S1130C0082E393E09F938F930C5E1F4F1F930F9388
S1130C100E94F406C8010E94A602DF92EF9280E4CB
S1130C2093E09F938F93085211091F930F930E948F
S1130C30F406C8010E94A6027894109267030FB6C6
S1130C40F894DEBF0FBECDBFE5960FB6F894DEBFB5
S1130C500FBECDBFDF91CF911F910F91FF90EF9009
S1130C60DF9008950E9479000E94BE020E94B5029E
S1130C700E9492020E94C50087E690E00E9415023D
S1130C800E94CD00809165031F928F938FE493E0BF
S1130C909F938F938EE693E09F938F930E94F40625
S1130CA08EE693E00E94A6020F900F900F900F9093
S1130CB00F900F90CFEAD3E00E94A40580916D03BA
S1130CC0882309F45FC0F894E090AF03F090B00378
S1130CD00091B1031091B2032091B3033091B40396
S1130CE04091B5035091B6036091B7037091B80376
S1130CF08091B9030E943402888199818B3F21E05D
S1130D00920721F083309240F1F039C0E0900B015A
S1130D10F0900C0100910D0110910E0120910F0132
S1130D203091100140911101509112016091130111
S1130D3070911401809115010E9434028BE091E0BE
S1130D400E9486011CC0E0900001F0900101009116
S1130D500201109103012091040130910501409199
S1130D600601509107016091080170910901809179
S1130D700A010E94340280E091E00E9486011092F0
S1130D806D03789480916603882309F495CFF894D1
S1130D9080916603823049F0833061F0813071F4D0
S1130DA08CE291E00E94860109C081E291E00E94F8
S1130DB0860104C086E191E00E94860178947CCF8C
S1130DC0AA1BBB1B51E107C0AA1FBB1FA617B7076D
S1130DD010F0A61BB70B881F991F5A95A9F7809589
S1130DE09095BC01CD010895AEE0B0E0EAEFF6E0E5
S1130DF00C94B5090D891E8986E08C831A830983B6
S1130E008FEF9FE79E838D83AE01475E5F4F6F89AF
S1130E10788DCE0101960E941607EF81F885E00FC8
S1130E20F11F10822E96E4E00C94D109ABE0B0E0FF
S1130E30ECE1F7E00C94A7096C017B018A01FC0149
S1130E4017821682838181FFCCC1CE0101963C01B9
S1130E50F6019381F70193FD859193FF81917F01C1
S1130E60882309F4BAC1853239F493FD859193FF3F
S1130E7081917F01853229F4B60190E00E940D0929
S1130E80E7CF912C212C312CFFE1F315D8F08B32D4
S1130E9079F038F4803279F08332A1F4232D206183
S1130EA01DC08D3261F0803369F4232D216016C09A
S1130EB0832D8260382EE32DE4603E2E2AC0F32D6C
S1130EC0F8601DC037FC2DC020ED280F2A3040F0FB
S1130ED08E32B9F436FC81C1232D2064322E19C020
S1130EE036FE06C08AE0989E200D1124922E11C071
S1130EF0EAE02E9E200D1124222EF32DF0623F2EC7
S1130F0008C08C3621F4832D8068382E02C08836C0
S1130F1041F4F70193FD859193FF81917F01811144
S1130F20B3CF982F9F7D9554933028F40C5F1F4FB7
S1130F309FE399830DC0833631F0833771F0833595
S1130F4009F059C021C0F801808189830E5F1F4FC9
S1130F5088248394912C530113C02801F2E04F0E8E
S1130F60511CF801A080B18036FE03C0692D70E0E9
S1130F7002C06FEF7FEFC5010E9402094C0182019C
S1130F80F32DFF773F2E16C0280122E0420E511C9C
S1130F90F801A080B18036FE03C0692D70E002C064
S1130FA06FEF7FEFC5010E94F7084C01F32DF06845
S1130FB03F2E820133FC1BC0822D90E088169906D7
S1130FC0B0F4B60180E290E00E940D092A94F4CFB7
S1130FD0F50137FC859137FE81915F01B60190E000
S1130FE00E940D0921102A9421E0821A910881148B
S1130FF0910471F7E8C0843611F0893641F5F8019F
S113100037FE07C060817181828193810C5F1F4F1D
S113101008C060817181072E000C880B990B0E5F4C
S11310201F4FF32DFF763F2E97FF09C090958095B3
S1131030709561957F4F8F4F9F4FF0683F2E2AE048
S113104030E0A3010E944909882E861845C08537DF
S113105031F4232D2F7EB22E2AE030E025C0932DCB
S1131060997FB92E8F36C1F018F4883579F0B5C060
S1131070803719F0883721F0B0C0E92FE061BE2E27
S1131080B4FE0DC0FB2DF460BF2E09C034FE0AC0AF
S1131090292F2660B22E06C028E030E005C020E1EA
S11310A030E002C020E132E0F801B7FE07C0608101
S11310B07181828193810C5F1F4F06C060817181B1
S11310C080E090E00E5F1F4FA3010E944909882E23
S11310D08618FB2DFF773F2E36FE0DC0232D2E7F65
S11310E0A22E891458F434FE0BC032FC09C0832D9F
S11310F08E7EA82E05C0B82CA32C03C0B82C01C02A
S1131100B92CA4FE0FC0FE01E80DF11D80818033CF
S113111021F49A2D997EA92E09C0A2FE06C0B3948B
S1131120B39404C08A2D867809F0B394A3FC11C04B
S1131130A0FE06C0B21488F4280C922C9B180EC092
S1131140B21460F4B60180E290E00E940D09B394F9
S1131150F7CFB21418F42B1802C0982C212CA4FE3B
S113116010C0B60180E390E00E940D09A2FE17C0F2
S1131170A1FC03C088E790E002C088E590E0B601D6
S11311800CC08A2D867859F0A1FE02C08BE201C002
S113119080E2A7FC8DE2B60190E00E940D0989145B
S11311A038F4B60180E390E00E940D099A94F7CFD9
S11311B08A94F301E80DF11D8081B60190E00E944C
S11311C00D098110F5CF222009F442CEB60180E248
S11311D090E00E940D092A94F6CFF601868197814A
S11311E002C08FEF9FEF2B96E2E10C94C309FC0140
S11311F00590615070400110D8F7809590958E0F3E
S11312009F1F0895FC016150704001900110D8F7B0
S1131210809590958E0F9F1F08950F931F93CF93E2
S1131220DF93FB01238121FD03C08FEF9FEF2CC0CF
S113123022FF16C046815781248135814217530706
S113124044F4A081B1819D012F5F3F4F31832083FE
S11312508C93268137812F5F3F4F3783268314C0B9
S11312608B01EC01FB010084F185E02D0995892BAC
S1131270E1F6D80116968D919C91179701961796D1
S11312809C938E931697CE01DF91CF911F910F916E
S11312900895FA01AA27283051F1203181F1E89408
S11312A06F936E7F6E5F7F4F8F4F9F4FAF4FB1E055
S11312B03ED0B4E03CD0670F781F891F9A1FA11D50
S11312C0680F791F8A1F911DA11D6A0F711D811D51
S11312D0911DA11D20D009F468943F912AE0269F16
S11312E011243019305D3193DEF6CF010895462F75
S11312F04770405D4193B3E00FD0C9F7F6CF462F56
S11313004F70405D4A3318F0495D31FD40524193BE
S113131002D0A9F7EACFB4E0A6959795879577957B
S11313206795BA95C9F700976105710508959B0102
S1131330AC010A2E06945795479537952795BA958B
S1131340C9F7620F731F841F951FA01D08952F9264
S11313503F924F925F926F927F928F929F92AF9241
S1131360BF92CF92DF92EF92FF920F931F93CF938E
S1131370DF93CDB7DEB7CA1BDB0B0FB6F894DEBF25
S11313800FBECDBF09942A88398848885F846E844B
S11313907D848C849B84AA84B984C884DF80EE8095
S11313A0FD800C811B81AA81B981CE0FD11D0FB69E
S11313B0F894DEBF0FBECDBFED010895F894FFCFC2
S11313C0900106000000000000000088010C0000ED
S11313D000000000000020000200000000000000E7
S11313E000180004000000000000000010000600C7
S11313F0000000000000007374617475732053547E
S11314004152545F572025640A0D005245505F53E2
S1131410544152545F572025640A0D00545F4144DF
S1131420445F41434B2025640A0D00545F4144440A
S11314305F4E41434B2025640A0D007472616E7344
S11314406D69745F61636B2025640A0D00747261B9
S11314506E736D69747465642E2073746174652091
S113146025640A0D00545F4E41434B20737461742C
S1131470652025640A0D0073746174757320737498
S11314806172742025640A0D00737461747573208D
S11314907265705F73746172742025640A0D007341
S11314A0746174757320616464722061636B2025B8
S11314B0640A0D007374617475732061646472202E
S11314C06E61636B2025640A0D0073746174757317
S11314D020646174612061636B2025640A0D006CD3
S11314E06173742062797465207265632E202564AB
S11314F00A0D007374617475732053544F50204364
S11315004F4E442E2025640A0D0073746F702067BB
S1131510656E6572617465642025640A0D00543A31
S1131520202E36323543202A2025640A0D00696EA8
S1131530745F70207665726966696564312F333A29
S11315402025640A0D00696E745F702076657269E7
S113155066696564322F333A2025640A0D00696E8A
S1131560745F70207665726966696564332F333AF7
S11315702025640A0D00636865636B20666F722022
S113158069326320696E742025640A0D00656E74E7
S11315906572696E67207772697465206D6F642E59
S11315A02025640A0D0054434120575249544520D4
S11315B0444F4E452025640A0D004D504C2057528F
S11315C049544520444F4E452025640A0D0052528B
S11315D05F5349425F5072657373203D2025750A3D
S11315E00D0053616D706C6520436F756E742D250D
S11315F075002D2053656E736F72202D20257500A4
S11316002C2056616C7565203D2025750A0D00550A
S113161041525420494E49542E2025640A0D00009D
S9030000FC
