:100000000C945A000C9410040C9477000C94770014
:100010000C9477000C9477000C9477000C94770084
:100020000C9477000C9477000C9477000C9477076D
:100030000C9477000C9477000C9476030C94770062
:100040000C9477000C9477000C9477000C94770054
:100050000C9477000C948B030C9477000C9477002D
:100060000C9439040C9477000C9477000C9477006E
:100070000C9477000C9477000C9477000C94770024
:100080000C9477000C9477000C9477000C94770014
:100090000C9477000C9477000C9477000C94770004
:1000A0000C9477000C9477000C9477000C947700F4
:1000B0000C94770011241FBECFEFD8E0DEBFCDBF78
:1000C00011E0A0E0B1E0E4EAF0E202C005900D9298
:1000D000AA3EB107D9F723E0AAEEB1E001C01D9214
:1000E000A238B207E1F70E942B0D0C9450100C942B
:1000F0000000219A87B187B987B187B987B187B9DD
:100100008AB18AB9519A8AB18AB98AB18AB98AB14F
:100110008AB98AB18AB98AB18AB98AB18AB984B1ED
:1001200084B9239A2B9A3C9A449A08951092C50058
:1001300087E68093C40088E08093C10086E08093C6
:10014000C2000895E0ECF0E0908195FFFDCF809330
:10015000C6000895CF93DF93EC018881882331F0A6
:1001600021960E94A20089918111FBCFDF91CF914E
:100170000895E89AE9E6F0E080818C7F80837894A6
:100180000895229A239A259A2A9A2B982D988CB50D
:1001900080658CBD8CB583608CBD08958EBD0DB41B
:1001A00007FEFDCF87EC90E00197F1F700C000005B
:1001B0008EB50895CF93DF93D82FC62F2A9882E06B
:1001C0000E94CE008D2F0E94CE008C2F0E94CE0068
:1001D0002A9ADF91CF910895CF93C82F2A9883E070
:1001E0000E94CE008C2F0E94CE008FEF0E94CE0086
:1001F0002A9ACF9108951F93CF93DF93182FD62F6C
:10020000C42F2A9885E00E94CE00812F0E94CE0044
:100210008D2F0E94CE008C2F0E94CE002A9ADF9153
:10022000CF911F9108952A980E94CE008FEF0E94CF
:10023000CE002A9A0895CF93C82F2A9880EC0E9466
:10024000CE002A9A8AE68A95F1F700C02A9882E0C1
:100250000E94CE0088E20E94CE0082E00E94CE0082
:1002600080E90E94CE008C2F0E94CE0083E00E9485
:10027000CE002A9A8AE20E94EC00C8137EC060E099
:100280008CE00E94DA0060E08DE00E94DA002A989B
:1002900082E00E94CE0080E20E94CE0080E00E94B8
:1002A000CE0080EE0E94CE002A9A2A9882E00E9418
:1002B000CE0084E20E94CE0080E00E94CE0080EE5C
:1002C0000E94CE002A9A2A9882E00E94CE0080E006
:1002D0000E94CE0080E00E94CE0080E60E94CE0008
:1002E0002A9A2A9882E00E94CE0084E00E94CE00E2
:1002F00080E00E94CE0080E60E94CE002A9A2A98D2
:1003000082E00E94CE0088E00E94CE0080E00E9441
:10031000CE0080E60E94CE002A9A2A9882E00E94AF
:10032000CE0080E10E94CE0080E00E94CE0080E6F8
:100330000E94CE002A9A2A9882E00E94CE0084E190
:100340000E94CE0080E00E94CE0080E60E94CE0097
:100350002A9A2A9882E00E94CE0088E10E94CE006C
:1003600080E00E94CE0080E60E94CE002A9A60E0E3
:100370008FE00E94DA0081E001C080E0CF91089513
:10038000CF92DF92EF92FF920F931F93CF93DF9361
:100390001F92CDB7DEB76C0180EB0E9413018983F9
:1003A0009981892F807496FD06C0998199230CF05C
:1003B0005DC084E901C080E92A980E94CE008FEFD9
:1003C0000E94CE0028E0829FC0011124F601918393
:1003D00080838FEF0E94CE00282F229526952770CC
:1003E000F60180819181822B918380838FEF0E941F
:1003F000CE008FEF0E94CE008FEF0E94CE008F7054
:10040000282F220FF6019281917E922B92832981CF
:1004100023FB222720F920FB90F992838823A1F067
:1004200086010D5F1F4F8150E82EF12CF4E0EF0E96
:10043000F11CEC0CFD1C8FEF0E94CE00F8018193A3
:100440008F01EE15FF05B9F72A9A898186FF06C04C
:1004500040E061E08CE20E94FB0005C040E062E009
:100460008CE20E94FB00898187708F5F0F90DF9183
:10047000CF911F910F91FF90EF90DF90CF90089553
:10048000BF92CF92DF92EF92FF920F931F93CF9381
:10049000DF931F92CDB7DEB76C0180EA0E94130193
:1004A0008983898182FF0AC0898184FF09C089818B
:1004B00086FD5DC06894BB24B2F805C0B12C03C0B2
:1004C0006894BB24B1F82A988B2D80640E94CE00DA
:1004D000F601808191819695879596958795969559
:1004E00087950E94CE00F60180818295880F807EDC
:1004F0000E94CE0080E00E94CE0080E00E94CE00EC
:10050000F6018281F82EF694FF2DFF70FF2E80FFFA
:1005100005C08F2F80640E94CE0018C08F2F0E94CC
:10052000CE00FF2099F086010D5F1F4FFA94EF2C4B
:10053000F12C84E0E80EF11CEC0CFD1CF80181911B
:100540008F010E94CE000E151F05C1F72A9AF5E013
:10055000FA95F1F700002A98B11002C0BB24B394B9
:100560008B2D80680E94CE002A9A8B2D01C080E0DE
:100570000F90DF91CF911F910F91FF90EF90DF903F
:10058000CF90BF9008959093C5008093C400E1EC94
:10059000F0E0808188698083E2ECF0E08081866011
:1005A00080830895E0ECF0E0908195FFFDCF80938B
:1005B000C6000895EF92FF920F931F93CF93DF939E
:1005C000FC0101900020E9F731977F01E81AF90A50
:1005D00061F08C01C0E0D0E0F80181918F010E94B0
:1005E000D2022196EC16FD06B9F7DF91CF911F914B
:1005F0000F91FF90EF900895CF92DF92EF92FF92CC
:100600000F931F93CF93DF93CDB7DEB72B970FB622
:10061000F894DEBF0FBECDBFE982FA820B831C8344
:100620002D833E834F83588769877A878B87C9805C
:10063000DA8006950F708EEE0E94D202C601969562
:10064000879596958795969587950E94D2029B816E
:10065000979599279795990F990B9295907F8C2D47
:100660008295880F807E892B802B0E94D2028B81FD
:1006700080FD17C0E02EF12C1E141F0494F480E0BE
:1006800090E010E0E4E0F0E0EC0FFD1FE80FF91F50
:1006900080810E94D2021F5F812F90E08E159F05FE
:1006A0008CF32B960FB6F894DEBF0FBECDBFDF9153
:1006B000CF911F910F91FF90EF90DF90CF90089511
:1006C00010927C008EEC80937A0081EC80937E0007
:1006D00008958DE487BD84B5826084BD84E085BDC6
:1006E000EEE6F0E080818260808308951F920F9291
:1006F0000FB60F9211248F93EF93FF93EAE7F0E088
:10070000808180648083FF91EF918F910F900FBE65
:100710000F901F9018951F920F920FB60F921124F1
:100720002F938F939F93EF93FF938091F4018530E4
:1007300031F08091F4018F5F8093F40102C0109238
:10074000F4018091F40180FF61C08091780090E015
:100750009093F6018093F501209179008091F50145
:100760009091F601922B9093F6018093F501809180
:10077000F4018530A8F58091F4018130E9F480918D
:10078000F701893030F48091F7018F5F8093F70192
:1007900003C01092F701199AE091F7018091F501D9
:1007A0009091F601F0E0EE0FFF1FE356FD4F9183AD
:1007B000808386E080937C008091F401833081F413
:1007C000E091F7018091F5019091F601F0E0EE0FD4
:1007D000FF1FE757FD4F9183808387E080937C0064
:1007E0008091F401853091F4E091F7018091F50159
:1007F0009091F601F0E0EE0FFF1FEE5BFD4F91834D
:10080000808310927C0081E08093F301FF91EF914F
:100810009F918F912F910F900FBE0F901F90189561
:100820001F920F920FB60F9211242F933F934F9365
:100830005F936F937F938F939F93AF93BF93EF9348
:10084000FF9386E592E00E94C00181E08093FB0166
:10085000FF91EF91BF91AF919F918F917F916F9198
:100860005F914F913F912F910F900FBE0F901F906E
:1008700018951F920F920FB60F9211248F938091AB
:10088000B9008C7F8093F2018F910F900FBE0F9073
:100890001F90189585E08093890086E180938800F9
:1008A0008DE08093810082E080936F000895CF9364
:1008B000DF938091F001833009F46BC138F481300B
:1008C00009F4C3C0823009F418C1AEC1853009F4FF
:1008D00042C020F0863009F47BC0A6C1E091F80147
:1008E0008091F00197E0E99FF0011124E45CFC4F56
:1008F000E80FF11D8081882361F0E091F801F0E0BC
:10090000EE0FFF1FEF54FD4F8FEF9FEF918380831A
:100910008BC1E4E3F3E0808190E0982F8827218168
:10092000822B87FF08C09695879596958795969513
:100930008795806E06C0969587959695879596952E
:100940008795E091F801F0E0EE0FFF1FEF54FD4FA7
:100950009183808369C1E091F8018091F00197E073
:10096000E99FF0011124E45CFC4FE80FF11D808148
:10097000882361F0E091F801F0E0EE0FFF1FE053F3
:10098000FD4F8FEF9FEF918380834EC1E4E3F3E04F
:10099000808190E0982F88272181822B87FF08C0D3
:1009A000969587959695879596958795806E06C0BE
:1009B000969587959695879596958795E091F801F8
:1009C000F0E0EE0FFF1FE053FD4F918380832CC1B9
:1009D000E091F8018091F00197E0E99FF001112486
:1009E000E45CFC4FE80FF11D8081882361F0E09109
:1009F000F801F0E0EE0FFF1FE25DFD4F8FEF9FEF7C
:100A00009183808311C1E4E3F3E0808190E0982F2B
:100A100088272181822B87FF08C096958795969518
:100A2000879596958795806E06C09695879596953D
:100A3000879596958795E091F801F0E0EE0FFF1FFE
:100A4000E25DFD4F91838083EFC0E091F8018091DA
:100A5000F00197E0E99FF0011124E45CFC4FE80FFE
:100A6000F11D8081882389F0E091F801F0E0EE0F1C
:100A7000FF1FEE0FFF1FEF59FD4F8FEF9FEFDC01C0
:100A800080839183A283B383CFC08091F8018930A2
:100A900019F41092F80105C08091F8018F5F8093DE
:100AA000F801E4E3F3E0808190E0A0E0B0E0BA2F49
:100AB000A92F982F88272181822B880F991FAA1F81
:100AC000BB1F880F991FAA1FBB1F880F991FAA1F42
:100AD000BB1F880F991FAA1FBB1FC091F801D0E050
:100AE000CC0FDD1FCC0FDD1FCF59DD4F2281822BB4
:100AF00088839983AA83BB8397C0E091F801809192
:100B0000F00197E0E99FF0011124E45CFC4FE80F4D
:100B1000F11D8081882389F0E091F801F0E0EE0F6B
:100B2000FF1FEE0FFF1FEC51FD4F8FEF9FEFDC011A
:100B300080839183A283B38377C0E4E3F3E0808171
:100B400090E0A0E0B0E0BA2FA92F982F882721814C
:100B5000822B880F991FAA1FBB1F880F991FAA1FDE
:100B6000BB1F880F991FAA1FBB1F880F991FAA1FA1
:100B7000BB1FC091F801D0E0CC0FDD1FCC0FDD1FF3
:100B8000CC51DD4F2281822B88839983AA83BB833A
:100B90004BC0E091F8018091F00197E0E99FF001EE
:100BA0001124E45CFC4FE80FF11D8081882389F05B
:100BB000E091F801F0E0EE0FFF1FEE0FFF1FE45F82
:100BC000FC4F8FEF9FEFDC0180839183A283B3837F
:100BD0002BC0E4E3F3E0808190E0A0E0B0E0BA2F26
:100BE000A92F982F88272181822B880F991FAA1F50
:100BF000BB1F880F991FAA1FBB1F880F991FAA1F11
:100C0000BB1F880F991FAA1FBB1FC091F801D0E01E
:100C1000CC0FDD1FCC0FDD1FC45FDC4F2281822B88
:100C200088839983AA83BB83DF91CF910895CF9363
:100C30009091BC00C92FC47092FFC5C0C091F20151
:100C4000C83109F128F4C83061F0C03199F0BAC058
:100C5000C832E9F1C03309F482C0C03209F0B2C031
:100C600021C01092EA018093BB0085E88093BC000C
:100C7000C0E0A9C01092EA018093BB0085E8809390
:100C8000BC00C0E0A0C01092EB01E091EA01F0E0EE
:100C9000EC5CFC4F80818093BB0085E88093BC00B6
:100CA000C0E091C09091EB019F5F9093EB019B306E
:100CB00038F082E08093ED0185E98093BC0083C029
:100CC0008093BB0085E88093BC00C0E07CC010929C
:100CD000EB01E091EA012E2F30E02F5F3F4F70E0F3
:100CE0002617370774F4EF5FE093EA01F0E0EC5C5D
:100CF000FC4F80818093BB0085E88093BC00C0E0FE
:100D000062C01092EA019091F001943000F5909148
:100D1000F0019923E1F0803E71F481E08093FA01C3
:100D20001092F901109200018093ED0185E9809302
:100D3000BC00C0E048C081E08093F9011092FA0144
:100D40008093ED0185EA8093BC00C0E03CC081E067
:100D50008093ED0185E98093BC00C0E034C08091B0
:100D6000EB018F5F8093EB018B30F8F08091F00105
:100D70001F928F9387E191E09F938F938CEF91E087
:100D80009F938F930E94660D8CEF91E00E94AA00C2
:100D900082E08093ED0185E98093BC000F900F9075
:100DA0000F900F900F900F900EC0E091EA01F0E0CD
:100DB000EC5CFC4F80818093BB0085E88093BC0095
:100DC000C0E001C0C0E08C2FCF910895282F9091F2
:100DD000BC00892F847092FF7DC09091F201903405
:100DE00009F128F4983061F0903199F072C0903593
:100DF000E1F1983509F45FC0983409F06AC021C068
:100E00001092EA012093BB0085E88093BC0080E04B
:100E100008951092EA012093BB0085E88093BC00FE
:100E200080E008951092EB018091F101882329F070
:100E300085E88093BC0080E0089595EC9093BC0019
:100E400008958091EB018F5F8093EB018B3040F030
:100E500081E08093EC0185E98093BC0080E40895F3
:100E600085EA8093BC0080E008952091EA01822FFA
:100E700090E0AC014F5F5F4F70E04617570774F486
:100E80003091BB00FC01EC5CFC4F30832F5F209362
:100E9000EA0185EC8093BC0080E008952091BB00BE
:100EA000FC01EC5CFC4F20831092EA0185E8809302
:100EB000BC0080E008951092EA01F8940E94570463
:100EC000789481E08093EC0185E98093BC0080E018
:100ED000089580E00895E9EBF0E0808181608083EF
:100EE00083E08093B80085EA8093BC0008951F9248
:100EF0000F920FB60F9211242F933F934F935F934E
:100F00006F937F938F939F93AF93BF93EF93FF93D1
:100F10008091EE018823E9F18091F0018630E0F4C0
:100F20008091F0018F5F8093F0011092F90110928F
:100F3000FA0181E080930001E091F8018091F001D5
:100F400097E0E99FF0011124E45CFC4FE80FF11DEC
:100F500010820E946B0718C081E08093F00110920C
:100F6000F9011092FA0180930001E091F80180915B
:100F7000F00197E0E99FF0011124E45CFC4FE80FD9
:100F8000F11D10820E946B071092EE0181E08093A8
:100F9000EF01FF91EF91BF91AF919F918F917F9161
:100FA0006F915F914F913F912F910F900FBE0F90D6
:100FB0001F901895CF93DF930E946B0784E0809376
:100FC0003403CCEBD0E007C08881882334F461E09F
:100FD00080EE0E9417069091ED019130A9F7809163
:100FE000F2011F928F9387E291E09F938F938CEF92
:100FF00091E09F938F930E94660D8CEF91E00E9489
:10100000AA001092ED010E946B07E4E3F3E086E290
:10101000808389E381830F900F900F900F900F9042
:101020000F90CCEBD0E007C08881882334F462E0D5
:1010300080EC0E9417069091ED019130A9F7809104
:10104000F2011F928F938BE391E09F938F938CEF2C
:1010500091E09F938F930E94660D8CEF91E00E9428
:10106000AA001092ED010E946B0785E08093340383
:101070000F900F900F900F900F900F90CCEBD0E04F
:1010800007C08881882334F461E080EE0E9417064F
:101090009091ED019130A9F71092ED018091F2014C
:1010A0001F928F9387E291E09F938F938CEF91E053
:1010B0009F938F930E94660D8CEF91E00E94AA008F
:1010C0000E946B07E4E3F3E086E2808389E3818397
:1010D0000F900F900F900F900F900F90CCEBD0E0EF
:1010E00007C08881882334F462E080EC0E941706F0
:1010F0009091ED019130A9F78091F2011F928F93A9
:101100008BE391E09F938F938CEF91E09F938F936C
:101110000E94660D8CEF91E00E94AA001092ED01F2
:101120000E946B0786E0809334030F900F900F901E
:101130000F900F900F90CCEBD0E007C088818823F0
:1011400034F461E080EE0E9417069091ED01913039
:10115000A9F71092ED018091F2011F928F938FE415
:1011600091E09F938F938CEF91E09F938F930E94D8
:10117000660D8CEF91E00E94AA000E946B07E4E3E9
:10118000F3E086E2808389E381830F900F900F90D4
:101190000F900F900F90CCEBD0E007C08881882390
:1011A00034F462E080EC0E9417069091ED019130DA
:1011B000A9F78091F2011F928F938BE391E09F93A7
:1011C0008F938CEF91E09F938F930E94660D8CEF2D
:1011D00091E00E94AA001092ED010F900F900F90E5
:1011E0000F900F900F90DF91CF910895CF93DF93E1
:1011F000F894E091F801CCE0D1E0F0E0EE0FFF1FB1
:10120000EE0FFF1FEF59FD4F80818F83E091F801B2
:10121000F0E0EE0FFF1FEE0FFF1FEF59FD4F818132
:101220008887A091F801E091F801B0E0AA0FBB1FF8
:10123000AA0FBB1FAF59BD4F12969C91F0E0EE0F65
:10124000FF1FEE0FFF1FEC51FD4F80818295807FC5
:10125000892B8987E091F801F0E0EE0FFF1FEE0F78
:10126000FF1FEC51FD4F80819181A281B381689471
:1012700013F8B695A795979587951694D1F78A8711
:10128000E091F801A1E0B1E0F0E0EE0FFF1FEE0FFA
:10129000FF1FEC51FD4F4081518162817381032E0C
:1012A0003CE076956795579547953A95D1F7302D5F
:1012B00013964C931397E091F801F0E0EE0FFF1FA7
:1012C000EE0FFF1FE45FFC4F808114968C93149700
:1012D000E091F801F0E0EE0FFF1FEE0FFF1FE45F5B
:1012E000FC4F818115968C931597E091F801F0E001
:1012F000EE0FFF1FEE0FFF1FE45FFC4F828116967B
:101300008C937894DF91CF910895CF93DF93F894E5
:10131000E091F701CCE0D1E0F0E0EE0FFF1FE356E3
:10132000FD4F80818B83A091F701E091F701B0E040
:10133000AA0FBB1FA356BD4F11969C91F0E0EE0F74
:10134000FF1FE757FD4F8081880F880F892B8C8303
:10135000A091F701E091F701B0E0AA0FBB1FA757DA
:10136000BD4F8D919C910024880F991F001C880F00
:10137000991F001C892F902DF0E0EE0FFF1FEE5BF0
:10138000FD4F90819295907F892B8D83E091F7019D
:10139000F0E0EE0FFF1FEE5BFD4F80819181929593
:1013A00082958F7089279F7089278E837894DF912B
:1013B000CF910895CF93DF93F894E091F801C1E0C5
:1013C000D1E0F0E0EE0FFF1FEF54FD4F80818295DA
:1013D000807F8E83E091F801F0E0EE0FFF1FEF5465
:1013E000FD4F8081918195958795959587959595E8
:1013F0008795959587958F83E091F801F0E0EE0F42
:10140000FF1FE053FD4F80818887A091F801E09194
:10141000F801B0E0AA0FBB1FA053BD4F11962C914D
:10142000F0E0EE0FFF1FE25DFD4F8081918182951C
:101430009295907F9827807F9827822B8987E091CB
:10144000F801F0E0EE0FFF1FE25DFD4F808191811A
:101450009595879595958795959587959595879574
:101460008A877894DF91CF910895CF93DF9380910D
:10147000F301882309F450C00E9485091092F301FA
:10148000E091F701F0E0EE0FFF1FE356FD4F818181
:101490008F9380818F9385E691E09F938F93CCEF1C
:1014A000D1E0DF93CF930E94660DCE010E94AA0087
:1014B000E091F701F0E0EE0FFF1FE757FD4F81814C
:1014C0008F9380818F938FE691E09F938F93DF932B
:1014D000CF930E94660DCE010E94AA00E091F70111
:1014E000F0E0EE0FFF1FEE5BFD4F81818F93808157
:1014F0008F9389E791E09F938F93DF93CF930E941F
:10150000660DCE010E94AA008DB79EB742960FB617
:10151000F8949EBF0FBE8DBFDF91CF910895EF92DB
:10152000FF920F931F938091FB01882309F449C018
:10153000F89480915602909157028B3022E09207E6
:1015400021F083319240F1F039C0E0900C01F0902D
:101550000D0100910E0110910F01209110013091A9
:101560001101409112015091130160911401709189
:101570001501809116010E94FC028CE091E00E940E
:1015800040021CC0E0900101F090020100910301B3
:10159000109104012091050130910601409107014D
:1015A000509108016091090170910A0180910B012D
:1015B0000E94FC0281E091E00E9440021092FB0137
:1015C00078941F910F91FF90EF900895803219F059
:1015D0008033A1F00895E091F8018091F00197E047
:1015E000E99FF0011124E45CFC4FE80FF11D8081BC
:1015F0008468808381E08093EE010895E091F80192
:101600008091F00197E0E99FF0011124E45CFC4F28
:10161000E80FF11D80818464808381E08093EE0176
:101620000895803219F08033A1F00895E091F80117
:101630008091F00197E0E99FF0011124E45CFC4FF8
:10164000E80FF11D80818868808381E08093EE013E
:101650000895E091F8018091F00197E0E99FF00191
:101660001124E45CFC4FE80FF11D808188648083C5
:1016700081E08093EE010895883419F0883599F05F
:101680000895E091F8018091F00197E0E99FF00161
:101690001124E45CFC4FE80FF11D88E2808381E0B7
:1016A0008093EE010895E091F8018091F00197E0B8
:1016B000E99FF0011124E45CFC4FE80FF11D88E183
:1016C000808381E08093EE010895883419F0883595
:1016D000A1F00895E091F8018091F00197E0E99F71
:1016E000F0011124E45CFC4FE80FF11D808182625F
:1016F000808381E08093EE010895E091F80180916C
:10170000F00197E0E99FF0011124E45CFC4FE80F41
:10171000F11D80818261808381E08093EE010895D4
:101720008091BC0088230CF017C18091F0018330B8
:1017300009F490C030F4813069F0823009F44AC075
:101740000895853009F4DDC008F4C6C0863009F478
:10175000EDC0089580910001882399F084E0809382
:10176000340361E080EE0E9417060E94E60A809131
:10177000ED01813009F0F0C01092ED010E946B077D
:1017800008958091FA01882351F081E08093340319
:1017900061E080EC0E9417060E94110B0895809171
:1017A000F901882309F4D8C063E081EC0E94E606C1
:1017B0000E943C0B8091EC01813009F0CDC0109269
:1017C000EC01ECEBF0E080818B7F808381E0809303
:1017D000EE01089580910001882399F085E08093BF
:1017E000340361E080EE0E9417060E94E60A8091B1
:1017F000ED01813009F0B0C01092ED010E946B073D
:1018000008958091FA01882351F081E08093340398
:1018100061E080EC0E9417060E94110B08958091F0
:10182000F901882309F498C063E081EC0E94E60680
:101830000E943C0B8091EC01813009F08DC0109228
:10184000EC01ECEBF0E080818B7F808381E0809382
:10185000EE01089580910001882399F086E080933D
:10186000340361E080EE0E9417060E94E60A809130
:10187000ED01813009F070C01092ED010E946B07FC
:1018800008958091FA01882351F081E08093340318
:1018900061E080EC0E9417060E94110B0895809170
:1018A000F901882309F458C063E081EC0E94E60640
:1018B0000E943C0B8091EC01813009F04DC01092E8
:1018C000EC010E94F608ECEBF0E080818B7F8083D6
:1018D00081E08093EE01089562E081E90E94E606CE
:1018E0000E94650B8091EC018130B1F51092EC0102
:1018F000ECEBF0E080818B7F808381E08093EE01D0
:10190000089562E083E90E94E6060E94650B8091DB
:10191000EC01813009F51092EC01ECEBF0E08081F4
:101920008B7F808381E08093EE01089562E085E9FA
:101930000E94E6060E94650B8091EC01813061F403
:101940001092EC01ECEBF0E080818B7F808381E0F2
:101950008093EE010E94DA0908958091EF018823B7
:1019600081F08091F001813061F41092EF0180915B
:10197000F001813031F40E94900B8091F0018130B0
:10198000D1F308958091EF01882381F08091F001D7
:10199000823061F41092EF018091F001823031F4D5
:1019A0000E94900B8091F0018230D1F308958091D4
:1019B000EF01882381F08091F001833061F410926F
:1019C000EF018091F001833031F40E94900B8091FF
:1019D000F0018330D1F308958091EF01882381F0E5
:1019E0008091F001843061F41092EF018091F00158
:1019F000843031F40E94900B8091F0018430D1F357
:101A000008958091EF01882381F08091F001853065
:101A100061F41092EF018091F001853031F40E9461
:101A2000900B8091F0018530D1F308958091EF0102
:101A3000882381F08091F001863061F41092EF01EB
:101A40008091F001863031F40E94900B8091F0017A
:101A50008630D1F308950E9479000E9469030E94A4
:101A600060030E9496000E94B90087E690E00E9401
:101A7000C3020E94C1000E94DA070E944A0481E06A
:101A80008093EF018093EE010E941B01882329F0CF
:101A900083E891E00E94DA0204C085E991E00E94A7
:101AA000DA020E94AD0C0E94C20C0E94350A0E940C
:101AB000D70C0E94EC0C0E94350A0E94010D0E9476
:101AC000160D0E94350A0E948F0AEBCFAEE0B0E0FF
:101AD000ECE6FDE00C9427100D891E8986E08C83CE
:101AE0001A8309838FEF9FE79E838D83AE01475E44
:101AF0005F4F6F89788DCE0101960E94880DEF812E
:101B0000F885E00FF11F10822E96E4E00C9443104C
:101B1000ABE0B0E0EEE8FDE00C9419106C017B0145
:101B20008A01FC0117821682838181FFCCC1CE011C
:101B300001963C01F6019381F70193FD859193FF96
:101B400081917F01882309F4BAC1853239F493FD6C
:101B5000859193FF81917F01853229F4B60190E050
:101B60000E947F0FE7CF912C212C312CFFE1F31540
:101B7000D8F08B3279F038F4803279F08332A1F4E6
:101B8000232D20611DC08D3261F0803369F4232D37
:101B9000216016C0832D8260382EE32DE4603E2E36
:101BA0002AC0F32DF8601DC037FC2DC020ED280F92
:101BB0002A3040F08E32B9F436FC81C1232D2064E6
:101BC000322E19C036FE06C08AE0989E200D1124E0
:101BD000922E11C0EAE02E9E200D1124222EF32D0C
:101BE000F0623F2E08C08C3621F4832D8068382E99
:101BF00002C0883641F4F70193FD859193FF8191EE
:101C00007F018111B3CF982F9F7D9554933028F495
:101C10000C5F1F4F9FE399830DC0833631F08337EC
:101C200071F0833509F059C021C0F80180818983A2
:101C30000E5F1F4F88248394912C530113C02801F9
:101C4000F2E04F0E511CF801A080B18036FE03C0B7
:101C5000692D70E002C06FEF7FEFC5010E94740F25
:101C60004C018201F32DFF773F2E16C0280122E0A0
:101C7000420E511CF801A080B18036FE03C0692DD0
:101C800070E002C06FEF7FEFC5010E94690F4C0149
:101C9000F32DF0683F2E820133FC1BC0822D90E0B3
:101CA00088169906B0F4B60180E290E00E947F0F9A
:101CB0002A94F4CFF50137FC859137FE81915F01BD
:101CC000B60190E00E947F0F21102A9421E0821A31
:101CD00091088114910471F7E8C0843611F08936B7
:101CE00041F5F80137FE07C06081718182819381DF
:101CF0000C5F1F4F08C060817181072E000C880B9C
:101D0000990B0E5F1F4FF32DFF763F2E97FF09C0F3
:101D100090958095709561957F4F8F4F9F4FF0689C
:101D20003F2E2AE030E0A3010E94BB0F882E8618C8
:101D300045C0853731F4232D2F7EB22E2AE030E0C6
:101D400025C0932D997FB92E8F36C1F018F48835B0
:101D500079F0B5C0803719F0883721F0B0C0E92F8D
:101D6000E061BE2EB4FE0DC0FB2DF460BF2E09C095
:101D700034FE0AC0292F2660B22E06C028E030E0CB
:101D800005C020E130E002C020E132E0F801B7FEFA
:101D900007C060817181828193810C5F1F4F06C0F3
:101DA0006081718180E090E00E5F1F4FA3010E946F
:101DB000BB0F882E8618FB2DFF773F2E36FE0DC0F9
:101DC000232D2E7FA22E891458F434FE0BC032FC32
:101DD00009C0832D8E7EA82E05C0B82CA32C03C06D
:101DE000B82C01C0B92CA4FE0FC0FE01E80DF11DF6
:101DF0008081803321F49A2D997EA92E09C0A2FEFC
:101E000006C0B394B39404C08A2D867809F0B394C5
:101E1000A3FC11C0A0FE06C0B21488F4280C922CBA
:101E20009B180EC0B21460F4B60180E290E00E94EC
:101E30007F0FB394F7CFB21418F42B1802C0982C6C
:101E4000212CA4FE10C0B60180E390E00E947F0F19
:101E5000A2FE17C0A1FC03C088E790E002C088E59D
:101E600090E0B6010CC08A2D867859F0A1FE02C020
:101E70008BE201C080E2A7FC8DE2B60190E00E94F7
:101E80007F0F891438F4B60180E390E00E947F0F41
:101E90009A94F7CF8A94F301E80DF11D8081B60181
:101EA00090E00E947F0F8110F5CF222009F442CEEE
:101EB000B60180E290E00E947F0F2A94F6CFF601EF
:101EC0008681978102C08FEF9FEF2B96E2E10C9401
:101ED0003510FC010590615070400110D8F78095D5
:101EE00090958E0F9F1F0895FC01615070400190E6
:101EF0000110D8F7809590958E0F9F1F08950F932E
:101F00001F93CF93DF93FB01238121FD03C08FEF4C
:101F10009FEF2CC022FF16C0468157812481358156
:101F20004217530744F4A081B1819D012F5F3F4FB9
:101F3000318320838C93268137812F5F3F4F3783F6
:101F4000268314C08B01EC01FB010084F185E02D98
:101F50000995892BE1F6D80116968D919C911797DA
:101F6000019617969C938E931697CE01DF91CF9191
:101F70001F910F910895FA01AA27283051F12031BD
:101F800081F1E8946F936E7F6E5F7F4F8F4F9F4F0D
:101F9000AF4FB1E03ED0B4E03CD0670F781F891F4F
:101FA0009A1FA11D680F791F8A1F911DA11D6A0F1D
:101FB000711D811D911DA11D20D009F468943F91D0
:101FC0002AE0269F11243019305D3193DEF6CF01CF
:101FD0000895462F4770405D4193B3E00FD0C9F795
:101FE000F6CF462F4F70405D4A3318F0495D31FD02
:101FF0004052419302D0A9F7EACFB4E0A695979555
:10200000879577956795BA95C9F70097610571052A
:1020100008959B01AC010A2E069457954795379574
:102020002795BA95C9F7620F731F841F951FA01DCE
:1020300008952F923F924F925F926F927F928F926C
:102040009F92AF92BF92CF92DF92EF92FF920F9347
:102050001F93CF93DF93CDB7DEB7CA1BDB0B0FB651
:10206000F894DEBF0FBECDBF09942A88398848880E
:102070005F846E847D848C849B84AA84B984C884A4
:10208000DF80EE80FD800C811B81AA81B981CE0F9B
:10209000D11D0FB6F894DEBF0FBECDBFED01089580
:0420A000F894FFCFE2
:1020A40001900110000000000000000088011000F1
:1020B40000000000000000545F4E41434B78313073
:1020C4002C2025640A0D005443412057524954459D
:1020D40020444F4E452025640A0D004D504C205796
:1020E4005249544520444F4E452025640A0D00545E
:1020F4004341204348322053454C454354454420F2
:1021040025640A0D004550313A2025640A0D004526
:1021140050323A2025640A0D004550333A20256494
:102124000A0D0043616E20496E6974205355434380
:10213400455353210043616E20496E697420464122
:10214400494C5552452100495020313A20256C759F
:102154000A0D00495020323A20256C750A0D0049B9
:102164005020333A20256C750A0D005420313A2052
:1021740025750A0D005420323A2025750A0D0054A5
:0A21840020333A2025750A0D0000F3
:00000001FF
