S00D00005349425F312E73726563A9
S11300000C945A000C94F0030C9477000C94770031
S11300100C9477000C9477000C9477000C94770080
S11300200C9477000C9477000C9477000C94F906E8
S11300300C9477000C9477000C9428030C947700AC
S11300400C9477000C9477000C94C2030C94770002
S11300500C9477000C943D030C9477000C94770077
S11300600C9419040C9477000C9477000C9477008A
S11300700C9477000C9477000C9477000C94770020
S11300800C9477000C9477000C9477000C94770010
S11300900C9477000C9477000C9477000C94770000
S11300A00C9477000C9477000C9477000C947700F0
S11300B00C94770011241FBECFEFD8E0DEBFCDBF74
S11300C013E0A0E0B1E0E0E6FEE102C005900D928D
S11300D0AA32B107D9F724E0AAE2B3E001C01D9225
S11300E0A336B207E1F70E94FA0B0C942E0F0C947E
S11300F00000219A87B187B987B187B987B187B9D9
S11301008AB18AB9519A8AB18AB98AB18AB98AB14B
S11301108AB98AB18AB98AB18AB98AB18AB984B1E9
S113012084B9239A2B9A3C9A449A08951092C50054
S113013087E68093C40088E08093C10086E08093C2
S1130140C2000895E0ECF0E0908195FFFDCF80932C
S1130150C6000895CF93DF93EC018881882331F0A2
S113016021960E94A20089918111FBCFDF91CF914A
S11301700895E89AE9E6F0E080818C7F80837894A2
S11301800895229A239A259A2A9A2B982D988CB509
S113019080658CBD8CB583608CBD08958EBD0DB417
S11301A007FEFDCF87EC90E00197F1F700C0000057
S11301B08EB50895CF93DF93D82FC62F2A9882E067
S11301C00E94CE008D2F0E94CE008C2F0E94CE0064
S11301D02A9ADF91CF910895CF93C82F2A9883E06C
S11301E00E94CE008C2F0E94CE008FEF0E94CE0082
S11301F02A9ACF9108951F93CF93DF93182FD62F68
S1130200C42F2A9885E00E94CE00812F0E94CE0040
S11302108D2F0E94CE008C2F0E94CE002A9ADF914F
S1130220CF911F9108952A980E94CE008FEF0E94CB
S1130230CE002A9A0895CF93C82F2A9880EC0E9462
S1130240CE002A9A8AE68A95F1F700C02A9882E0BD
S11302500E94CE0088E20E94CE0082E00E94CE007E
S113026080E90E94CE008C2F0E94CE0083E00E9481
S1130270CE002A9A8AE20E94EC00C81719F05E9A0E
S113028080E07EC060E08CE00E94DA0060E08DE0F7
S11302900E94DA002A9882E00E94CE0080E20E9446
S11302A0CE0080E00E94CE0080EE0E94CE002A9A0A
S11302B02A9882E00E94CE0084E20E94CE0080E070
S11302C00E94CE0080EE0E94CE002A9A2A9882E0F4
S11302D00E94CE0080E00E94CE0080E00E94CE000A
S11302E080E00E94CE002A9A2A9882E00E94CE00E2
S11302F084E00E94CE0080E00E94CE0080E00E9454
S1130300CE002A9A2A9882E00E94CE0088E00E94B9
S1130310CE0080E00E94CE0080E20E94CE002A9AA5
S11303202A9882E00E94CE0080E10E94CE0080E004
S11303300E94CE0080E20E94CE002A9A2A9882E08F
S11303400E94CE0084E10E94CE0080E00E94CE0094
S113035080E20E94CE002A9A2A9882E00E94CE006F
S113036088E10E94CE0080E00E94CE0080E20E94DC
S1130370CE002A9A60E08FE00E94DA005E9881E065
S1130380CF910895CF92DF92EF92FF920F931F9334
S1130390CF93DF931F92CDB7DEB76C0180EB0E9441
S11303A0130189839981892F807496FD06C09981F0
S11303B099230CF05DC084E901C080E92A980E9469
S11303C0CE008FEF0E94CE0028E0829FC00111244E
S11303D0F601918380838FEF0E94CE00282F22950F
S11303E026952770F60180819181822B91838083E9
S11303F08FEF0E94CE008FEF0E94CE008FEF0E94FD
S1130400CE008F70282F220FF6019281917E922BBD
S11304109283298123FB222720F920FB90F99283E0
S11304208823A1F086010D5F1F4F8150E82EF12C27
S1130430F4E0EF0EF11CEC0CFD1C8FEF0E94CE00DB
S1130440F80181938F01EE15FF05B9F72A9A898186
S113045086FF06C040E061E08CE20E94FB0005C01C
S113046040E062E08CE20E94FB00898187708F5F2C
S11304700F90DF91CF911F910F91FF90EF90DF903C
S1130480CF900895BF92CF92DF92EF92FF920F9395
S11304901F93CF93DF931F92CDB7DEB76C0180EA31
S11304A00E9413018983898182FF0AC0898184FFA4
S11304B009C0898186FD69C06894BB24B2F805C06F
S11304C0B12C03C06894BB24B1F82A988B2D8064A6
S11304D00E94CE00D6018D919C9196958795969514
S11304E08795969587950E94CE00F6018081829526
S11304F0880F807E0E94CE0080E00E94CE0080E0C3
S11305000E94CE00D60112968C91E82EE694BE2D60
S1130510BF70EB2E80FF05C08B2F80640E94CE003D
S113052017C08B2F0E94CE00EE2091F086010D5F44
S11305301F4FEA94F12CE4E0EE0EF11CEC0CFD1CD0
S1130540D8018D918D010E94CE000E151F05C1F7B3
S11305502A9AB5E0BA95F1F700002A98B11002C0C2
S1130560BB24B3948B2D80680E94CE002A9AF60196
S1130570118210828281807E8283339688E0DF013B
S11305801D928A95E9F78B2D01C080E00F90DF91D1
S1130590CF911F910F91FF90EF90DF90CF90BF907C
S11305A008959093C5008093C400E1ECF0E080814D
S11305B088698083E2ECF0E080818660808308951E
S11305C0E0ECF0E080818823ECF78091C600089588
S11305D0E0ECF0E0908195FFFDCF8093C600089594
S11305E0EF92FF920F931F93CF93DF93FC0101903F
S11305F00020E9F731977F01E81AF90A61F08C01CC
S1130600C0E0D0E0F80181918F010E94E8022196B8
S1130610EC16FD06B9F7DF91CF911F910F91FF9072
S1130620EF90089510927C008EEC80937A0081EC18
S113063080937E0008958DE487BD84B5826084BD77
S113064084E085BDEEE6F0E08081826080830895D9
S11306501F920F920FB60F9211248F93EF93FF9373
S1130660EAE7F0E0808180648083FF91EF918F91CD
S11306700F900FBE0F901F9018951F920F920FB6F8
S11306800F9211242F938F939F93EF93FF93809155
S11306903403853031F0809134038F5F80933403C9
S11306A002C0109234038091340380FF61C08091B2
S11306B0780090E09093360380933503209179007D
S11306C08091350390913603922B90933603809357
S11306D03503809134038530A8F58091340381304B
S11306E0E9F480913703893030F4809137038F5FC8
S11306F08093370303C010923703199AE0913703AC
S11307008091350390913603F0E0EE0FFF1FEC5318
S1130710FC4F9183808386E080937C008091340336
S1130720833081F4E091370380913503909136034F
S1130730F0E0EE0FFF1FE055FC4F9183808387E0CC
S113074080937C0080913403853091F4E0913703E9
S11307508091350390913603F0E0EE0FFF1FE759C7
S1130760FC4F9183808310927C0081E0809333035B
S1130770FF91EF919F918F912F910F900FBE0F904A
S11307801F9018951F920F920FB60F9211242F935A
S11307903F934F935F936F937F938F939F93AF9305
S11307A0BF93EF93FF938091C000882344F00E948D
S11307B0E0028093EF038CEE93E00E944202FF91EB
S11307C0EF91BF91AF919F918F917F916F915F91C5
S11307D04F913F912F910F900FBE0F901F9018953E
S11307E01F920F920FB60F9211242F933F934F93A2
S11307F05F936F937F938F939F93AF93BF93EF9385
S1130800FF938DE793E00E94C20181E080933B0354
S1130810FF91EF91BF91AF919F918F917F916F91D4
S11308205F914F913F912F910F900FBE0F901F90AA
S113083018951F920F920FB60F9211248F938091E7
S1130840B9008C7F809332038F910F900FBE0F906D
S11308501F90189585E08093890086E18093880035
S11308608DE08093810082E080936F000895CF93A0
S1130870DF9380913003833009F4D9C038F4813098
S113088009F471C0823009F4A6C0FCC0853039F186
S113089020F0863009F445C0F5C0EBE5F4E0808132
S11308A090E0982F88272181822B87FF08C0969596
S11308B087959695879596958795806E06C09695AB
S11308C087959695879596958795E0913803F0E0FE
S11308D0EE0FFF1FE852FC4F91838083D3C0EBE5FA
S11308E0F4E0808190E0982F88272181822B87FF74
S11308F008C0969587959695879596958795806E69
S113090006C0969587959695879596958795E091D7
S11309103803F0E0EE0FFF1FE950FC4F9183808312
S1130920B1C0EBE5F4E0808190E0982F8827218125
S1130930822B87FF08C096958795969587959695FF
S11309408795806E06C0969587959695879596951A
S11309508795E0913803F0E0EE0FFF1FEB5AFC4F50
S1130960918380838FC080913803893019F4109269
S1130970380305C0809138038F5F80933803EBE51B
S1130980F4E0808190E0A0E0B0E0BA2FA92F982F86
S113099088272181822B880F991FAA1FBB1F880FCC
S11309A0991FAA1FBB1F880F991FAA1FBB1F880F5F
S11309B0991FAA1FBB1FC0913803D0E0CC0FDD1FC5
S11309C0CC0FDD1FC857DC4F2281822B888399838B
S11309D0AA83BB8357C0EBE5F4E0808190E0A0E0FC
S11309E0B0E0BA2FA92F982F88272181822B880F56
S11309F0991FAA1FBB1F880F991FAA1FBB1F880F0F
S1130A00991FAA1FBB1F880F991FAA1FBB1FC09144
S1130A103803D0E0CC0FDD1FCC0FDD1FC55FDB4FEB
S1130A202281822B88839983AA83BB832BC0EBE525
S1130A30F4E0808190E0A0E0B0E0BA2FA92F982FD5
S1130A4088272181822B880F991FAA1FBB1F880F1B
S1130A50991FAA1FBB1F880F991FAA1FBB1F880FAE
S1130A60991FAA1FBB1FC0913803D0E0CC0FDD1F14
S1130A70CC0FDD1FCD5CDB4F2281822B88839983D1
S1130A80AA83BB83DF91CF910895CF939091BC004B
S1130A9092FF05C1909132039831D1F1C82F993159
S1130AA028F4983069F0903159F1F9C0983209F47A
S1130AB069C0903309F4C2C0903209F0F0C036C066
S1130AC0809130031F928F9387E191E09F938F93DE
S1130AD08CE393E09F938F930E94440C8CE393E008
S1130AE00E94AA0010922A03C093BB0085E8809359
S1130AF0BC000F900F900F900F900F900F90CFC0ED
S1130B0010922A038093BB0085E88093BC00C7C081
S1130B1010922B03E0912A03F0E0E55AFB4F808109
S1130B208093BB0085E88093BC00B9C080912B03FF
S1130B308F5F80932B038B30F8F0809130031F92EA
S1130B408F938BE291E09F938F938CE393E09F9339
S1130B508F930E94440C8CE393E00E94AA0082E0ED
S1130B6080932D0385E98093BC000F900F900F9024
S1130B700F900F900F9093C0C093BB0085E88093B3
S1130B80BC008DC010922B0380912A0390E0019643
S1130B9070E0861797073CF5809130031F928F937E
S1130BA08DE391E09F938F938CE393E09F938F93D6
S1130BB00E94440C8CE393E00E94AA00E0912A0373
S1130BC0EF5FE0932A03F0E0E55AFB4F80818093C6
S1130BD0BB0085E88093BC000F900F900F900F909E
S1130BE00F900F905CC010922A03809130038430E0
S1130BF0F0F4809130038823D1F0C03E69F481E0A1
S1130C0080933A03109239031092000180932D03CC
S1130C1085E98093BC0043C081E08093390310923E
S1130C203A0380932D0385EA8093BC0038C081E0A9
S1130C3080932D0385E98093BC0031C080912B0300
S1130C408F5F80932B038630F8F0809130031F92DE
S1130C508F938FE491E09F938F938CE393E09F9322
S1130C608F930E94440C8CE393E00E94AA0082E0DC
S1130C7080932D0385E98093BC000F900F900F9013
S1130C800F900F900F900BC0E0912A03F0E0E55A0B
S1130C90FB4F80818093BB0085E88093BC00CF919B
S1130CA008959091BC0092FF8CC0909132039034CF
S1130CB001F128F4983069F0903199F00895903555
S1130CC009F44FC0983509F470C0983409F079C01C
S1130CD01EC010922A038093BB0085E88093BC0059
S1130CE0089510922A038093BB0085E88093BC008A
S1130CF0089510922B0380913103882321F085E815
S1130D008093BC00089585EC8093BC000895809185
S1130D102B038F5F80932B038B30F8F0809130038B
S1130D201F928F938DE591E09F938F938CE393E0D3
S1130D309F938F930E94440C8CE393E00E94AA003B
S1130D4081E080932C0385E98093BC000F900F9081
S1130D500F900F900F900F90089585EA8093BC0038
S1130D60089520912A03822F90E0AC014F5F5F4FDA
S1130D7070E0461757076CF43091BB00FC01E55A4C
S1130D80FB4F30832F5F20932A0385EC8093BC00B4
S1130D9008952091BB00FC01E55AFB4F208310927B
S1130DA02A0385E88093BC00089510922A03F894DE
S1130DB00E943704789481E080932C0385E9809322
S1130DC0BC000895ECEBF0E0808184608083808136
S1130DD081608083A9EBB0E08C9181608C9383E087
S1130DE08093B80080818062808380818068808362
S1130DF008951F920F920FB60F9211242F933F93D1
S1130E004F935F936F937F938F939F93AF93BF930E
S1130E10EF93FF9380912E03882371F18091300327
S1130E201F928F938FE691E09F938F938CE393E0CF
S1130E309F938F930E94440C8CE393E00E94AA003A
S1130E40809130030F900F900F900F900F900F90A0
S1130E50863040F4809130038F5F809330030E948A
S1130E60E20605C081E0809330030E94E2061092FE
S1130E702E0381E080932F03FF91EF91BF91AF91F7
S1130E809F918F917F916F915F914F913F912F919E
S1130E900F900FBE0F901F901895CF93DF930E9471
S1130EA0E20684E080935B04CCEBD0E007C0888149
S1130EB0882334F461E080EE0E94450590912D036F
S1130EC09130A9F7809132031F928F938EE791E0BE
S1130ED09F938F938CE393E09F938F930E94440C92
S1130EE08CE393E00E94AA0010922D030E94E20674
S1130EF0EBE5F4E086E2808389E381830F900F9031
S1130F000F900F900F900F90CCEBD0E007C088812A
S1130F10882334F462E080EC0E94450590912D030F
S1130F209130A9F7809132031F928F9382E991E067
S1130F309F938F938CE393E09F938F930E94440C31
S1130F408CE393E00E94AA0010922D030E94E20613
S1130F5085E080935B040F900F900F900F900F909B
S1130F600F90CCEBD0E007C08881882334F461E093
S1130F7080EE0E94450590912D039130A9F71092BF
S1130F802D03809132031F928F938EE791E09F93FC
S1130F908F938CE393E09F938F930E94440C8CE394
S1130FA093E00E94AA000E94E206EBE5F4E086E2E8
S1130FB0808389E381830F900F900F900F900F909F
S1130FC00F90CCEBD0E007C08881882334F462E032
S1130FD080EC0E94450590912D039130A9F78091F2
S1130FE032031F928F9382E991E09F938F938CE356
S1130FF093E09F938F930E94440C8CE393E00E94B0
S1131000AA0010922D030E94E20686E080935B04FE
S11310100F900F900F900F900F900F90CCEBD0E0AB
S113102007C08881882334F461E080EE0E9445057E
S113103090912D039130A9F710922D0380913203E2
S11310401F928F9386EA91E09F938F938CE393E0B2
S11310509F938F930E94440C8CE393E00E94AA0018
S11310600E94E206EBE5F4E086E2808389E3818373
S11310700F900F900F900F900F900F90CCEBD0E04B
S113108007C08881882334F462E080EC0E9445051F
S113109090912D039130A9F7809132031F928F9381
S11310A082E991E09F938F938CE393E09F938F93D6
S11310B00E94440C8CE393E00E94AA0010922D033A
S11310C00F900F900F900F900F900F90DF91CF9192
S11310D00895CF93DF9380913003833009F441C0A6
S11310E028F4813061F0823019F136C1853009F479
S11310F0BFC008F4A4C0863009F4D3C02DC18091C8
S113110030031F928F9381E592E09F938F938CE33A
S113111093E09F938F930E94440C8CE393E00E948E
S1131120AA000F900F900F900F900F900F9014C182
S1131130809130031F928F9381E592E09F938F9368
S11311408CE393E09F938F930E94440C8CE393E091
S11311500E94AA000F900F900F900F900F900F9085
S1131160FBC0809130031F928F9381E592E09F939F
S11311708F93CCE3D3E0DF93CF930E94440CCE0152
S11311800E94AA00E0913803F0E0EE0FFF1FEE0F7B
S1131190FF1FE857FC4F83818F9382818F93818156
S11311A08F9380818F9386E692E09F938F93DF9352
S11311B0CF930E94440CCE010E94AA00E091380310
S11311C0F0E0EE0FFF1FEE0FFF1FE55FFB4F838183
S11311D08F9382818F9381818F9380818F9380E716
S11311E092E09F938F93DF93CF930E94440CCE01A0
S11311F00E94AA00E0913803F0E0EE0FFF1FEE0F0B
S1131200FF1FED5CFB4F83818F9382818F938181DC
S11312108F9380818F938AE792E09F938F93DF93DC
S1131220CF930E94440CCE010E94AA008DB79EB7B2
S11312304E960FB6F8949EBF0FBE8DBF8DC08091A1
S113124030031F928F9384E892E09F938F938CE3F3
S113125093E09F938F930E94440C8CE393E00E944D
S1131260AA000F900F900F900F900F900F9074C0E2
S1131270809130031F928F9384E892E09F938F9321
S11312808CE393E09F938F930E94440C8CE393E050
S11312900E94AA000F900F900F900F900F900F9044
S11312A05BC0809130031F928F9384E892E09F93F8
S11312B08F93CCE3D3E0DF93CF930E94440CCE0111
S11312C00E94AA00E0913803F0E0EE0FFF1FE852FD
S11312D0FC4F81818F9380818F9388E992E09F9363
S11312E08F93DF93CF930E94440CCE010E94AA00F7
S11312F0E0913803F0E0EE0FFF1FE950FC4F8181CD
S11313008F9380818F9381EA92E09F938F93DF93F1
S1131310CF930E94440CCE010E94AA00E0913803AE
S1131320F0E0EE0FFF1FEB5AFC4F81818F93808119
S11313308F938AEA92E09F938F93DF93CF930E94D7
S1131340440CCE010E94AA008DB79EB748960FB6F2
S1131350F8949EBF0FBE8DBFDF91CF910895CF93B8
S11313608091BC0088230CF013C18091300383303A
S113137009F490C030F4813069F0823009F44AC035
S113138007C1853009F4DBC008F4C4C0863009F411
S1131390EBC0FEC080910001882389F084E0809333
S11313A05B0461E080EE0E94450580912D0381304D
S11313B009F0EEC010922D030E94E206E9C080916C
S11313C03A03882341F081E080935B0461E080EC80
S11313D00E944505DDC080913903882309F4D8C0F3
S11313E063E081EC0E94510680912C03813009F066
S11313F0CFC010922C0310923903C1E0C0930001B6
S11314000E946908ECEBF0E080818B7F8083C093BD
S11314102E03BEC080910001882389F085E080936B
S11314205B0461E080EE0E94450580912D038130CC
S113143009F0AEC010922D030E94E206A9C080916B
S11314403A03882341F081E080935B0461E080ECFF
S11314500E9445059DC080913903882309F498C0F2
S113146063E081EC0E94510680912C03813009F0E5
S11314708FC010922C0310923903C1E0C093000175
S11314800E946908ECEBF0E080818B7F8083C0933D
S11314902E037EC080910001882389F086E080932A
S11314A05B0461E080EE0E94450580912D0381304C
S11314B009F06EC010922D030E94E20669C080916B
S11314C03A03882341F081E080935B0461E080EC7F
S11314D00E9445055DC080913903882309F458C0F2
S11314E063E081EC0E94510680912C03813009F065
S11314F04FC010922C0310923903C1E0C093000135
S11315000E946908ECEBF0E080818B7F8083C093BC
S11315102E033EC062E081E90E94510680912C03B3
S11315208130B1F510922C030E946908ECEBF0E0D5
S113153080818B7F808381E080932E0329C062E0C9
S113154083E90E94510680912C03813009F51092A1
S11315502C030E946908ECEBF0E080818B7F808390
S113156081E080932E0314C062E085E90E94510655
S113157080912C03813061F410922C030E9469083D
S1131580ECEBF0E080818B7F808381E080932E03FD
S1131590CF91089580912F03882381F080913003A7
S11315A0813061F410922F0380913003813031F443
S11315B00E94AF09809130038130D1F30895809166
S11315C02F03882381F080913003823061F41092DC
S11315D02F0380913003823031F40E94AF0980914F
S11315E030038230D1F3089580912F03882381F052
S11315F080913003833061F410922F038091300383
S1131600833031F40E94AF09809130038330D1F3E9
S1131610089580912F03882381F0809130038430D2
S113162061F410922F0380913003843031F40E94CE
S1131630AF09809130038430D1F3089580912F0352
S1131640882381F080913003853061F410922F0358
S113165080913003853031F40E94AF0980913003CA
S11316608530D1F3089580912F03882381F08091F0
S11316703003863061F410922F038091300386305A
S113168031F40E94AF09809130038630D1F308957C
S11316900F931F93CF93DF9380913303882309F42F
S11316A04AC0E0913803F0E0EE0FFF1FEC53FC4F0B
S11316B081818F9380818F930BEF12E01F930F939F
S11316C0CCE3D3E0DF93CF930E94440CCE010E947D
S11316D0AA00E0913803F0E0EE0FFF1FEC53FC4F3B
S11316E081818F9380818F931F930F93DF93CF9387
S11316F00E94440CCE010E94AA00E0913803F0E05D
S1131700EE0FFF1FEC53FC4F81818F9380818F93E9
S11317101F930F93DF93CF930E94440CCE010E943A
S1131720AA00109233038DB79EB742960FB6F89471
S11317309EBF0FBE8DBFDF91CF911F910F91089572
S1131740CF93DF93E0913803ACE0B1E0F0E0EE0F2B
S1131750FF1FE852FC4F808114968C931497C0911C
S11317603803E0913803D0E0CC0FDD1FC852DC4FC2
S11317702981F0E0EE0FFF1FE950FC4F8081918139
S113178082959295907F9827807F9827822B159633
S11317908C931597E0913803F0E0EE0FFF1FE950AA
S11317A0FC4F808191819595879595958795959521
S11317B087959595879516968C931697E09138039F
S11317C0F0E0EE0FFF1FEB5AFC4F808117968C93CD
S11317D01797E0913803F0E0EE0FFF1FEB5AFC4F30
S11317E0818118968C9381E091E00E944202DF91FE
S11317F0CF9108950E9479000E941B030E94120356
S11318000E9496000E94B90087E690E00E94D102EF
S11318100E94C1000E944D070E942A0481E0809327
S11318202F0380932E030E941B01882329F085E057
S113183093E00E94F00204C087E193E00E94F0026A
S11318402FEF81EE94E0215080409040E1F700C0FA
S113185000000E94CA0A0E94DF0A0E94480B0E94EC
S1131860F40A0E94090B0E94480B0E941E0B0E945E
S1131870330B0E94480B8FE39CE90197F1F700C0FA
S113188000000E94A00BE5CFAEE0B0E0EAE4FCE08B
S11318900C94050F0D891E8986E08C831A830983B5
S11318A08FEF9FE79E838D83AE01475E5F4F6F8905
S11318B0788DCE0101960E94660CEF81F885E00FC9
S11318C0F11F10822E96E4E00C94210FABE0B0E0FF
S11318D0ECE6FCE00C94F70E6C017B018A01FC0140
S11318E017821682838181FFCCC1CE0101963C010F
S11318F0F6019381F70193FD859193FF81917F0117
S1131900882309F4BAC1853239F493FD859193FF94
S113191081917F01853229F4B60190E00E945D0E29
S1131920E7CF912C212C312CFFE1F315D8F08B3229
S113193079F038F4803279F08332A1F4232D2061D8
S11319401DC08D3261F0803369F4232D216016C0EF
S1131950832D8260382EE32DE4603E2E2AC0F32DC1
S1131960F8601DC037FC2DC020ED280F2A3040F050
S11319708E32B9F436FC81C1232D2064322E19C075
S113198036FE06C08AE0989E200D1124922E11C0C6
S1131990EAE02E9E200D1124222EF32DF0623F2E1C
S11319A008C08C3621F4832D8068382E02C0883616
S11319B041F4F70193FD859193FF81917F0181119A
S11319C0B3CF982F9F7D9554933028F40C5F1F4F0D
S11319D09FE399830DC0833631F0833771F08335EB
S11319E009F059C021C0F801808189830E5F1F4F1F
S11319F088248394912C530113C02801F2E04F0EE4
S1131A00511CF801A080B18036FE03C0692D70E03E
S1131A1002C06FEF7FEFC5010E94520E4C0182019C
S1131A20F32DFF773F2E16C0280122E0420E511CF1
S1131A30F801A080B18036FE03C0692D70E002C0B9
S1131A406FEF7FEFC5010E94470E4C01F32DF06844
S1131A503F2E820133FC1BC0822D90E0881699062C
S1131A60B0F4B60180E290E00E945D0E2A94F4CFB7
S1131A70F50137FC859137FE81915F01B60190E055
S1131A800E945D0E21102A9421E0821A910881148B
S1131A90910471F7E8C0843611F0893641F5F801F4
S1131AA037FE07C060817181828193810C5F1F4F73
S1131AB008C060817181072E000C880B990B0E5FA2
S1131AC01F4FF32DFF763F2E97FF09C09095809509
S1131AD0709561957F4F8F4F9F4FF0683F2E2AE09E
S1131AE030E0A3010E94990E882E861845C08537E0
S1131AF031F4232D2F7EB22E2AE030E025C0932D21
S1131B00997FB92E8F36C1F018F4883579F0B5C0B5
S1131B10803719F0883721F0B0C0E92FE061BE2E7C
S1131B20B4FE0DC0FB2DF460BF2E09C034FE0AC004
S1131B30292F2660B22E06C028E030E005C020E13F
S1131B4030E002C020E132E0F801B7FE07C0608156
S1131B507181828193810C5F1F4F06C06081718106
S1131B6080E090E00E5F1F4FA3010E94990E882E23
S1131B708618FB2DFF773F2E36FE0DC0232D2E7FBA
S1131B80A22E891458F434FE0BC032FC09C0832DF4
S1131B908E7EA82E05C0B82CA32C03C0B82C01C07F
S1131BA0B92CA4FE0FC0FE01E80DF11D8081803325
S1131BB021F49A2D997EA92E09C0A2FE06C0B394E1
S1131BC0B39404C08A2D867809F0B394A3FC11C0A1
S1131BD0A0FE06C0B21488F4280C922C9B180EC0E8
S1131BE0B21460F4B60180E290E00E945D0EB394FA
S1131BF0F7CFB21418F42B1802C0982C212CA4FE91
S1131C0010C0B60180E390E00E945D0EA2FE17C0F2
S1131C10A1FC03C088E790E002C088E590E0B6012B
S1131C200CC08A2D867859F0A1FE02C08BE201C057
S1131C3080E2A7FC8DE2B60190E00E945D0E89145B
S1131C4038F4B60180E390E00E945D0E9A94F7CFD9
S1131C508A94F301E80DF11D8081B60190E00E94A1
S1131C605D0E8110F5CF222009F442CEB60180E248
S1131C7090E00E945D0E2A94F6CFF601868197814A
S1131C8002C08FEF9FEF2B96E2E10C94130FFC013F
S1131C900590615070400110D8F7809590958E0F93
S1131CA09F1F0895FC016150704001900110D8F706
S1131CB0809590958E0F9F1F08950F931F93CF9338
S1131CC0DF93FB01238121FD03C08FEF9FEF2CC025
S1131CD022FF16C04681578124813581421753075C
S1131CE044F4A081B1819D012F5F3F4F3183208354
S1131CF08C93268137812F5F3F4F3783268314C00F
S1131D008B01EC01FB010084F185E02D0995892B01
S1131D10E1F6D80116968D919C9117970196179626
S1131D209C938E931697CE01DF91CF911F910F91C3
S1131D300895FA01AA27283051F1203181F1E8945D
S1131D406F936E7F6E5F7F4F8F4F9F4FAF4FB1E0AA
S1131D503ED0B4E03CD0670F781F891F9A1FA11DA5
S1131D60680F791F8A1F911DA11D6A0F711D811DA6
S1131D70911DA11D20D009F468943F912AE0269F6B
S1131D8011243019305D3193DEF6CF010895462FCA
S1131D904770405D4193B3E00FD0C9F7F6CF462FAB
S1131DA04F70405D4A3318F0495D31FD4052419314
S1131DB002D0A9F7EACFB4E0A695979587957795D1
S1131DC06795BA95C9F700976105710508959B0158
S1131DD0AC010A2E06945795479537952795BA95E1
S1131DE0C9F7620F731F841F951FA01D08952F92BA
S1131DF03F924F925F926F927F928F929F92AF9297
S1131E00BF92CF92DF92EF92FF920F931F93CF93E3
S1131E10DF93CDB7DEB7CA1BDB0B0FB6F894DEBF7A
S1131E200FBECDBF09942A88398848885F846E84A0
S1131E307D848C849B84AA84B984C884DF80EE80EA
S1131E40FD800C811B81AA81B981CE0FD11D0FB6F3
S1131E50F894DEBF0FBECDBFED010895F894FFCF17
S1131E600188010C000000000000000020000200B6
S1131E7000000000000000737461747573205354F3
S1131E804152545F572025640A0D00545F41444475
S1131E905F4E41434B7831302C20256400747261CD
S1131EA06E736D69745F61636B2025640A0D005461
S1131EB05F4E41434B7831302C20256400525F4102
S1131EC044445F4E41434B7831302C2025640073E9
S1131ED0746174652025642C202B2B0A0D00544357
S1131EE04120575249544520444F4E452025640A09
S1131EF00D004D504C20575249544520444F4E45F7
S1131F002025640A0D0054434120434832205345A0
S1131F104C45435445442025640A0D006D656469AD
S1131F20616E2045503A20256400455020312044FC
S1131F30433A20256400455020322044433A20256A
S1131F406400455020332044433A2025640A0D00A0
S1131F506D656469616E20543A2025640054312013
S1131F6044433A2025640054322044433A202564F3
S1131F700054332044433A2025640A0D006D6564FF
S1131F8069616E2049503A2025640049502031206F
S1131F9044433A20256400495020322044433A20E7
S1131FA0256400495020332044433A2025640A0D17
S1131FB000495020726561642C2073746174653A21
S1131FC02025640A0D004950313A2025640A0D0089
S1131FD04950323A2025640A0D004950333A2025ED
S1131FE0640A0D005420726561642C20737461745A
S1131FF0653A2025640A0D0054313A2025640A0DFF
S11320000054323A2025640A0D0054333A202564E2
S11320100A0D00696E745F70207665726966696581
S113202064312F333A2025640A0D00696E745F70A1
S1132030207665726966696564322F333A202564B7
S11320400A0D00696E745F70207665726966696551
S113205064332F333A2025640A0D004550313A2069
S113206025640A0D0043616E20496E69742053553E
S11320704343455353210043616E20496E697420E4
S10D20804641494C55524521000029
S9030000FC
