:020000040000fa
:080000000002040000000000f2
:020000040000fa
:0400080000030000f1
:020000040000fa
:04000c00d00200001e
:020000040000fa
:04001000d602000014
:020000040000fa
:04001400dc0200000a
:020000040000fa
:04001800e202000000
:020000040000fa
:04001c0000030000dd
:020000040000fa
:0400200000030000d9
:020000040000fa
:0400240000030000d5
:020000040000fa
:0400280000030000d1
:020000040000fa
:04002c0000030000cd
:020000040000fa
:0400300000030000c9
:020000040000fa
:0400340000030000c5
:020000040000fa
:0400380000030000c1
:020000040000fa
:04003c0000030000bd
:020000040000fa
:0400400000030000b9
:020000040000fa
:0400440000030000b5
:020000040000fa
:0400480000030000b1
:020000040000fa
:04004c0000030000ad
:020000040000fa
:0400500000030000a9
:020000040000fa
:0400540000030000a5
:020000040000fa
:0400580000030000a1
:020000040000fa
:04005c00000300009d
:020000040000fa
:040060000003000099
:020000040000fa
:040064000003000095
:020000040000fa
:040068000003000091
:020000040000fa
:04006c00000300008d
:020000040000fa
:040070000003000089
:020000040000fa
:040074000003000085
:020000040000fa
:04007800a8020000da
:020000040000fa
:04007c00000300007d
:020000040000fa
:040080000003000079
:020000040000fa
:040084000003000075
:020000040000fa
:040088000003000071
:020000040000fa
:04008c00000300006d
:020000040000fa
:040090000003000069
:020000040000fa
:040094000003000065
:020000040000fa
:040098000003000061
:020000040000fa
:04009c00000300005d
:020000040000fa
:0400a0000003000059
:020000040000fa
:0400a4000003000055
:020000040000fa
:0400a8000003000051
:020000040000fa
:0400ac00000300004d
:020000040000fa
:0400b0000003000049
:020000040000fa
:0400b4000003000045
:020000040000fa
:0400b8000003000041
:020000040000fa
:0400bc00000300003d
:020000040000fa
:0400c0000003000039
:020000040000fa
:0400c4000003000035
:020000040000fa
:0400c8000003000031
:020000040000fa
:0400cc00000300002d
:020000040000fa
:0400d0000003000029
:020000040000fa
:0400d4000003000025
:020000040000fa
:0400d8000003000021
:020000040000fa
:0400dc00000300001d
:020000040000fa
:0400e0000003000019
:020000040000fa
:0400e4000003000015
:020000040000fa
:0400e8000003000011
:020000040000fa
:0400ec00000300000d
:020000040000fa
:0400f0000003000009
:020000040000fa
:0400f4000003000005
:020000040000fa
:0400f8000003000001
:020000040000fa
:0400fc0000030000fd
:020000040000fa
:0401000000030000f8
:020000040000fa
:0401040000030000f4
:020000040000fa
:0401080000030000f0
:020000040000fa
:04010c0000030000ec
:020000040000fa
:0401100000030000e8
:020000040000fa
:0401140000030000e4
:020000040000fa
:0401180000030000e0
:020000040000fa
:04011c0000030000dc
:020000040000fa
:0401200000030000d8
:020000040000fa
:0401240000030000d4
:020000040000fa
:0401280000030000d0
:020000040000fa
:04012c0000030000cc
:020000040000fa
:0401300000030000c8
:020000040000fa
:0401340000030000c4
:020000040000fa
:0401380000030000c0
:020000040000fa
:04013c0000030000bc
:020000040000fa
:0401400000030000b8
:020000040000fa
:0401440000030000b4
:020000040000fa
:0401480000030000b0
:020000040000fa
:04014c0000030000ac
:020000040000fa
:0401500000030000a8
:020000040000fa
:0401540000030000a4
:020000040000fa
:0401580000030000a0
:020000040000fa
:04015c00000300009c
:020000040000fa
:040160000003000098
:020000040000fa
:040164000003000094
:020000040000fa
:040168000003000090
:020000040000fa
:04016c00000300008c
:020000040000fa
:040170000003000088
:020000040000fa
:040174000003000084
:020000040000fa
:040178000003000080
:020000040000fa
:04017c00000300007c
:020000040000fa
:040180000003000078
:020000040000fa
:0402080000030000ef
:020000040000fa
:04020c00e802000004
:020000040000fa
:04021000ee020000fa
:020000040000fa
:04021400f4020000f0
:020000040000fa
:04021800fa020000e6
:020000040000fa
:04021c0000030000db
:020000040000fa
:0402200000030000d7
:020000040000fa
:0402240000030000d3
:020000040000fa
:0402280000030000cf
:020000040000fa
:04022c0000030000cb
:020000040000fa
:0402300000030000c7
:020000040000fa
:0402340000030000c3
:020000040000fa
:0402380000030000bf
:020000040000fa
:04023c0000030000bb
:020000040000fa
:0402400000030000b7
:020000040000fa
:0402440000030000b3
:020000040000fa
:0402480000030000af
:020000040000fa
:04024c0000030000ab
:020000040000fa
:0402500000030000a7
:020000040000fa
:0402540000030000a3
:020000040000fa
:04025800000300009f
:020000040000fa
:04025c00000300009b
:020000040000fa
:040260000003000097
:020000040000fa
:040264000003000093
:020000040000fa
:04026800000300008f
:020000040000fa
:04026c00000300008b
:020000040000fa
:040270000003000087
:020000040000fa
:040274000003000083
:020000040000fa
:04027800000300007f
:020000040000fa
:04027c00000300007b
:020000040000fa
:040280000003000077
:020000040000fa
:040284000003000073
:020000040000fa
:04028800000300006f
:020000040000fa
:04028c00000300006b
:020000040000fa
:040290000003000067
:020000040000fa
:040294000003000063
:020000040000fa
:04029800000300005f
:020000040000fa
:04029c00000300005b
:020000040000fa
:0402a0000003000057
:020000040000fa
:0402a4000003000053
:020000040000fa
:0402a800000300004f
:020000040000fa
:0402ac00000300004b
:020000040000fa
:0402b0000003000047
:020000040000fa
:0402b4000003000043
:020000040000fa
:0402b800000300003f
:020000040000fa
:0402bc00000300003b
:020000040000fa
:0402c0000003000037
:020000040000fa
:0402c4000003000033
:020000040000fa
:0402c800000300002f
:020000040000fa
:0402cc00000300002b
:020000040000fa
:0402d0000003000027
:020000040000fa
:0402d4000003000023
:020000040000fa
:0402d800000300001f
:020000040000fa
:0402dc00000300001b
:020000040000fa
:0402e0000003000017
:020000040000fa
:0402e4000003000013
:020000040000fa
:0402e800000300000f
:020000040000fa
:0402ec00000300000b
:020000040000fa
:0402f0000003000007
:020000040000fa
:0402f4000003000003
:020000040000fa
:0402f80000030000ff
:020000040000fa
:0402fc0000030000fb
:020000040000fa
:0403000000030000f6
:020000040000fa
:0403040000030000f2
:020000040000fa
:0403080000030000ee
:020000040000fa
:04030c0000030000ea
:020000040000fa
:0403100000030000e6
:020000040000fa
:0403140000030000e2
:020000040000fa
:0403180000030000de
:020000040000fa
:04031c0000030000da
:020000040000fa
:0403200000030000d6
:020000040000fa
:0403240000030000d2
:020000040000fa
:0403280000030000ce
:020000040000fa
:04032c0000030000ca
:020000040000fa
:0403300000030000c6
:020000040000fa
:0403340000030000c2
:020000040000fa
:0403380000030000be
:020000040000fa
:04033c0000030000ba
:020000040000fa
:0403400000030000b6
:020000040000fa
:0403440000030000b2
:020000040000fa
:0403480000030000ae
:020000040000fa
:04034c0000030000aa
:020000040000fa
:0403500000030000a6
:020000040000fa
:0403540000030000a2
:020000040000fa
:04035800000300009e
:020000040000fa
:04035c00000300009a
:020000040000fa
:040360000003000096
:020000040000fa
:040364000003000092
:020000040000fa
:04036800000300008e
:020000040000fa
:04036c00000300008a
:020000040000fa
:040370000003000086
:020000040000fa
:040374000003000082
:020000040000fa
:04037800000300007e
:020000040000fa
:04037c00000300007a
:020000040000fa
:040380000003000076
:020000040000fa
:10040000af8120000e7f22000e0188000000000056
:10041000000020000000e000020032000001200087
:10042000200288000c0007008077200001002000d7
:1004300011000700000020000000e0000200320070
:100440000000020000000000200702000000000081
:100450000040da000000fe004440a9000000200037
:100460000000e0000300320000002000a00188002e
:100470004440a80000000600910188008000780038
:100480000000eb0015003700e280400032a0b4000d
:100490009101ba00e280400032a0b4009102ba009b
:1004a000e280400032a0b4000002eb00472bde00e7
:1004b000f507b200602ce10004003a000059eb009f
:1004c0008301e900fdff3e00040037006128e100e0
:1004d000010032000082eb000b00070011c3ba00dc
:1004e0001101ba000604e00003003a000200e00037
:1004f000e5ff3a0000000600f607b200960188000a
:1005000082007800f5ff37003159ba008301e90015
:100510000c0032002159ba008301e90008003200c2
:100520000400e00003003a00e280400032a0b40082
:10053000f5ff370011d9ba008301e900faff3a004c
:100540008100e800e180400032a0b4000000060015
:100550003600f800809fbe00829fbe00849fbe00d0
:10056000869fbe003400f80000002000a001880033
:100570000000fa0000092000540107008680a9004d
:100580000080fa003400f9004f03be004f02be00a5
:100590004f01be004f00be003600f90000400600cb
:1005a0000000fa008020a900ffff37000000fa00d9
:1005b0008060a900ffff37000000fa008040a9001a
:1005c000ffff37000000fa008080a900ffff37001e
:1005d0000000fa008020a900ffff37000000fa00a9
:1005e0008060a900ffff37000000fa008040a900ea
:1005f000ffff37000000fa008080a900ffff3700ee
:080600000000fa00ffff3700c3
:020000040000fa
:100608000000fa00d042a800d002a800c862a800e2
:100618004135800000fe2f00008060006001b300bb
:10062800403588008540a9009540a90041e2a9000d
:100638004382a9004362a9004342a90042a2a8003c
:100648004322a9004302a90042c2a9004282a9008c
:100658004262a9004242a9004222a8004202a9001f
:1006680041e2a8000080fa00000006000200fa003b
:10067800004f780000000000001280006200600057
:100688000000e000fcff3a001e00fb00401288005a
:1006980040128000004078000080fa000000060048
:1006a8000000fa00c9c2a900c802a8000080fa0028
:1006b800000006000000fa0001348000f00f2e0050
:1006c8008080600000402100010070000034880034
:1006d80081e0a800700580000000a0000010a100c3
:1006e8000020a100700588009680a8008220a8003c
:1006f8000080fa00000006000200fa00000f7800ef
:10070800d102a800d122a900900120004011880040
:1007180021e2a8002342a800c136800000fe2f0075
:10072800008060003000b300c0368800a426a8000e
:100738000080fa00000006000000fa000000000037
:100748001111800000202000008060000000e000ff
:10075800fbff3a0020118000004078000080fa007a
:10076800000006000200fa00004f780000000000b8
:100778001111800000202000008060000000e000cf
:10078800fbff3a001e80fb00201188000080fa0061
:10079800000006000200fa00004f78001147980098
:1007a800d442a90020c0b300b0ff07001e40780063
:1007b800aeff07001e409000acff0700d442a8001f
:1007c8000080fa00000006000400fa0020479800a4
:1007d800d442a90030c0b300a4ff07002e40900007
:1007e800a2ff070000c0eb00a0ff0700004f780041
:1007f800d442a8001e4078000080fa0000000600dd
:100808000400fa00004f780011479800224798002a
:10081800d442a90050c0b30094ff07001e407800de
:1008280092ff07001e40900090ff07002e409000a6
:100838008eff0700d442a8000080fa0000000600de
:100848000400fa0020479800d442a9002e409000e6
:1008580086ff070000c0eb0084ff0700004f780008
:10086800d442a8001e4078000080fa00000006006c
:100878000200fa00004f7800d442a90000ccb3006f
:100888007aff0700d442a8000005200001002000dc
:1008980087010700d442a90020c0b30073ff0700f6
:1008a80080c2b30071ff070020c0b3006fff0700cc
:1008b80000c9b3006dff07001e4078006bff0700fa
:1008c80030c0b30069ff0700d442a800a0c2b3003b
:1008d800bdff07009e4f500003003200cc02a80065
:1008e8000040eb00750037008040eb00c0c0b3004b
:1008f800a8ff07008040eb00d0c0b300a5ff0700a9
:1009080001c2b30000c6b300a2ff070001c2b300d2
:1009180000c7b3009fff0700d442a90020c0b3005e
:1009280052ff070000c2b30050ff070000c0eb00f1
:100938004eff070000ceb3004cff0700d442a800ca
:10094800d442a90020c0b30048ff070040c2b3004a
:1009580046ff070000c0eb0044ff070000ceb300cd
:1009680042ff0700d442a800d442a90020c0b30027
:100978003eff07000040eb003cff070000c8bf0037
:100988000080fb004300de000040780037ff0700ce
:1009980000c8bf000080fb004500dd000040780073
:1009a80032ff0700d442a800d442a90020c0b300f7
:1009b8002eff070040c0b3002cff070000c8bf008f
:1009c8000080fb004300de000040780027ff07009e
:1009d80000c8bf000080fb004500dd000040780033
:1009e80022ff0700d442a800d442a90020c0b300c7
:1009f8001eff070080c0b3001cff070000c8bf002f
:100a08000080fb004300de000040780017ff07006d
:100a180000c8bf000080fb004500dd0000407800f2
:100a280012ff0700d442a800d442a90020c0b30096
:100a38000eff070000c1b3000cff070000c8bf008d
:100a48000080fb004300de000040780007ff07003d
:100a580000c8bf000080fb004500dd0000407800b2
:100a680002ff0700d442a800d442a90020c0b30066
:100a7800fefe070040c1b300fcfe070000c8bf002f
:100a88000080fb004300de0000407800f7fe07000e
:100a980000c8bf000080fb004500dd000040780072
:100aa800f2fe0700d442a8008040eb00f0c0b3007b
:100ab80038ff0700cc02a90010c0b3000080fa007c
:100ac800000006000600fa00881f7800200798003a
:100ad80000cbb3005aff0700204798002e40900033
:100ae8008080fb0000042000008060000000e0001f
:100af8000300320000c9b300004f78000800370037
:100b08002e4090000004e00003003d0040c9b300ff
:100b1800004f7800020037000040eb005c0037000f
:100b2800d442a9001e407800d0fe070000c0eb00a8
:100b3800cefe07000000fb00c300dd002e00900081
:100b4800010878002e0090001004780000c0eb0027
:100b5800c6fe07000000fb004580de00004078006c
:100b68000000fb00880070002e009000010878004b
:100b780000c0eb00bdfe070000c0eb00bbfe070095
:100b880000c0eb00b9fe07006f40600030479800d6
:100b98003e409000ef4060002e0090008180fb00f6
:100ba800ef806000818040009001900012fe2f00cd
:100bb8000281610082807000110098002e40900030
:100bc8000080fb006800600000f0a7000000ea0059
:100bd8000000ea004f00de00804078002e00900000
:100be8008180fb00e180600090019000e2ff2f000f
:100bf8000281610082807000110098000040eb00c3
:100c0800104798000b0037001e4090000084fb003e
:100c180000c0eb0095fe0700804078002e00900091
:100c280008004000314098001e4090000040e80055
:100c3800104798009e4090003e40900080cf5000a2
:100c4800f1ff3900d442a8002e4090008080fb00bc
:100c580000042000008060000000e0000500320071
:100c68000041eb0011c0b300c0c2b300e4fe0700ae
:100c7800040037000041eb0021c0b300c0c2b3003c
:100c8800dffe07002e409000674060000040e8004b
:100c98004f0478000080fa00000006000600fa0001
:100ca8002007980000cab300e5fe07002047980017
:100cb8002e4090000080fb00640060000000e0000f
:100cc80003003a000040eb00004f780013003700a3
:100cd8002e4090000080fb00700060000000e000e3
:100ce80003003a0020c0b300004f78000b00370023
:100cf8002e4090008080fb000004200000806000ef
:100d08000000e00003003a0040c0b300004f780044
:100d1800020037000040eb0045003700d442a9002c
:100d280000c4b3001e40700050fe07002e00900063
:100d3800100078004300de00004078004bfe0700fa
:100d48002e009000100078004500dd00004078007b
:100d580046fe07000040eb0044fe07000040eb00a1
:100d680042fe07002e009000100090000000d10005
:100d78006f406000304798002e00900010009000ef
:100d8800610060000000e00005003200be409000f5
:100d980000c4b30000c0700034fe07001300370021
:100da8003e40900031fe07000040eb0010479800dd
:100db8000a0037001e4090000080fb00ae00900043
:100dc8000080e800008040001040900027fe0700e7
:100dd8001e4090000040e800104798009e40900098
:100de8003e40900080cf5000f2ff3900d442a80066
:100df80040002000010020002d000700d442a90077
:100e08001e4078000004e000020032001e40780016
:100e18000100370010c0b300004f780000c8b300cd
:100e28001e40700011fe0700d442a8001e40780042
:100e38000080fa00000006000000fa000080eb00c5
:100e48006019880016fe07001afe0700ecfd07006f
:100e580010c0b30086fe07000004e0000300320063
:100e680000c0eb003ffe0700020037000040eb0027
:100e78003cfe070001c8bf000080fb00104088004e
:100e8800204080000000a100204088002040800011
:100e98000010a0000020a1000030a1000040a10027
:100ea800204088000000eb000080fa0000000600e7
:020000040000fa
:100eb800f03fb1000180b10006003500ee030900e3
:100ec80000000000403fb1000180b100fbff3d0081
:100ed8001000b000203fb00002003500008009007b
:080ee8000000000000000600fc
:020000040000fa
:100ef00002080000180000000000000000080000c8
:100f00000200000002000000201000009407800092
:020000040000fa
:100f10000000fa000080fa00000006000000fa005d
:080f20000080fa000000060049
:020000040000fa
:040f280000000000c5
:00000001FF
