:100000000C948A000C94E7030C94A7000C94A700AE
:100010000C9410040C94A7000C94A7000C94A70057
:100020000C94A7000C94A7000C94A7000C94A700B4
:100030000C94A7000C94A7000C94A7000C94A700A4
:100040000C94A7000C94A7000C94AA050C94A7008C
:100050000C94A7000C947A040C94A7000C94A700AD
:100060000C94A7000C94A7000C94A7000C94A70074
:100070000C94A7000C94A7000C94A7000C94A70064
:100080000C94A7000C94A7000C94A7000C94A70054
:100090000C94A7000C94A7000C94A7000C94A70044
:1000A0000C94A7000C94A7000C94A7000C94A70034
:1000B0000C94A7001E063A06560672068E06AA067D
:1000C000C606E206EF06EF06EF06EF06EF06EF06BE
:1000D000EF06CB05EF06EF06EF06EF06EF06EF069D
:1000E000EF06EF06EF06EF06EF06EF06EF06EF0668
:1000F000EF06E205EF06EF06EF06EF06EF06EF0666
:10010000EF06EF06EF06EF06EF06EF06EF06EF0647
:10011000EF06F50511241FBECFEFD8E0DEBFCDBF3F
:1001200011E0A0E0B1E0E6EBFEE002C005900D9228
:10013000A833B107D9F721E0A8E3B1E001C01D92CF
:10014000A835B207E1F70E9457030C9459070C94A5
:1001500000005298539A549A559A569A6A986B98F6
:1001600038983A983B980895E89AE9E6F0E080815B
:100170008C7F8083E8E6F0E0808182608083ECE61B
:10018000F0E080818C60808378940895ECE7F0E063
:10019000808180648083EAE7F0E08081886A8083E0
:1001A0000895229A239A259A2A9A2B982D988CB5ED
:1001B00080658CBD8CB583608CBD08958EBD0DB4FB
:1001C00007FEFDCF87EC90E00197F1F700C000003B
:1001D0008EB50895CF93DF93D82FC62F2A9882E04B
:1001E0000E94DE008D2F0E94DE008C2F0E94DE0018
:1001F0002A9ADF91CF910895CF93C82F2A9883E050
:100200000E94DE008C2F0E94DE008FEF0E94DE0035
:100210002A9ACF9108951F93CF93DF93182FD62F4B
:10022000C42F2A9885E00E94DE00812F0E94DE0004
:100230008D2F0E94DE008C2F0E94DE002A9ADF9113
:10024000CF911F9108952A980E94DE008FEF0E949F
:10025000DE002A9A0895CF93C82F2A9880EC0E9436
:10026000DE002A9A8AE68A95F1F700C02A9882E091
:100270000E94DE0088E20E94DE0082E00E94DE0032
:1002800080E90E94DE008C2F0E94DE0083E00E9445
:10029000DE002A9A8AE20E94FC008C1719F05E9A0E
:1002A00080E07EC060E08CE00E94EA0060E08DE0CB
:1002B0000E94EA002A9882E00E94DE0080E20E940A
:1002C000DE0080E00E94DE0080EE0E94DE002A9ABE
:1002D0002A9882E00E94DE0084E20E94DE0080E034
:1002E0000E94DE0080EE0E94DE002A9A2A9882E0B8
:1002F0000E94DE0080E00E94DE0080E00E94DE00BE
:1003000080E00E94DE002A9A2A9882E00E94DE00A5
:1003100084E00E94DE0080E00E94DE0080E00E9417
:10032000DE002A9A2A9882E00E94DE0088E00E947D
:10033000DE0080E00E94DE0080E00E94DE002A9A5B
:100340002A9882E00E94DE0080E10E94DE0080E0C8
:100350000E94DE0080E00E94DE002A9A2A9882E055
:100360000E94DE0084E10E94DE0080E00E94DE0048
:1003700080E00E94DE002A9A2A9882E00E94DE0035
:1003800088E10E94DE0080E00E94DE0080E00E94A2
:10039000DE002A9A60E08FE00E94EA005E9881E029
:1003A000CF910895CF92DF92EF92FF920F931F9318
:1003B000CF93DF931F92CDB7DEB76C0180EB0E9425
:1003C000230189839981892F807496FD06C09981C4
:1003D00099230CF05EC084E901C080E92A980E944C
:1003E000DE008FEF0E94DE0028E0829FC001112412
:1003F000F601918380838FEF0E94DE00282F2295E3
:1004000026952770F60180819181822B91838083CC
:100410008FEF0E94DE008FEF0E94DE008FEF0E94C0
:10042000DE00982F9F70292F220FF6018281817E96
:10043000822B8283298123FB222720F920FB80F94C
:1004400082839923A1F086010D5F1F4F9150E92E01
:10045000F12CF4E0EF0EF11CEC0CFD1C8FEF0E9470
:10046000DE00F80181938F01EE15FF05B9F72A9A96
:10047000898186FF06C040E061E08CE20E940B01AA
:1004800005C040E062E08CE20E940B018981877028
:100490008F5F0F90DF91CF911F910F91FF90EF90A1
:1004A000DF90CF900895BF92CF92DF92EF92FF92AC
:1004B0000F931F93CF93DF931F92CDB7DEB76C01DD
:1004C00080EA0E9423018983898182FF0AC0898191
:1004D00084FF09C0898186FD5DC06894BB24B2F8A1
:1004E00005C0B12C03C06894BB24B1F82A988B2DA9
:1004F00080640E94DE00F601808191819695879547
:1005000096958795969587950E94DE00F6018081E5
:100510008295880F807E0E94DE0080E00E94DE00CF
:1005200080E00E94DE00F6018281F82EF694FF2D15
:10053000FF70FF2E80FF05C08F2F80640E94DE00B9
:1005400018C08F2F0E94DE00FF2099F086010D5FFA
:100550001F4FFA94EF2CF12C84E0E80EF11CEC0C08
:10056000FD1CF80181918F010E94DE000E151F0510
:10057000C1F72A9AF5E0FA95F1F700002A98B11030
:1005800002C0BB24B3948B2D80680E94DE002A9A9F
:100590008B2D01C080E00F90DF91CF911F910F91C3
:1005A000FF90EF90DF90CF90BF9008959093C5009B
:1005B0008093C400E1ECF0E0808188698083E2EC04
:1005C000F0E08081866080830895E0ECF0E0808137
:1005D0008823ECF78091C6000895E0ECF0E090816C
:1005E00095FFFDCF8093C6000895CF92DF92EF92E2
:1005F000FF920F931F93CF93DF93CDB7DEB72B9767
:100600000FB6F894DEBF0FBECDBFE982FA820B832E
:100610001C832D833E834F83588769877A878B8716
:10062000C980DA8006950F708EEE0E94ED02C60139
:100630009695879596958795969587950E94ED0254
:10064000CC0CCC0CCC0CCC0CCC0C8B81817082955E
:10065000807F8C29802B0E94ED028B8180FD17C04A
:10066000E02EF12C1E141F0494F480E090E010E0C2
:10067000E4E0F0E0EC0FFD1FE80FF91F80810E941D
:10068000ED021F5F812F90E08E159F058CF34B9A32
:100690002B960FB6F894DEBF0FBECDBFDF91CF9182
:1006A0001F910F91FF90EF90DF90CF9008950E94DF
:1006B000A9000E94B4000E94C60087E690E00E9454
:1006C000D6020E94D10086B18093510181E00E9440
:1006D0002B01882321F08FEF0E94ED0203C080E000
:1006E0000E94ED02EAE7F0E08081806480830F2EB3
:1006F000F6E48F2EF1E09F2EF02D0F2EF1E0AF2EBD
:10070000F1E0BF2EF02D0F2EFBE3CF2EF1E0DF2E18
:10071000F02DCDE3D1E080913901882319F1F40166
:1007200020813181F5018081918128173907C1F439
:10073000E0900C01F0900D0100910E0110910F015D
:10074000209110013091110140911201509113013B
:100750006091140170911501809116010E94F502BB
:100760001092390180913A018823A9F27FB6F8945A
:10077000E0903B01F0903C0100913D0110913E0161
:1007800020913F013091400140914101509142013F
:100790006091430170914401809145010E94F502EE
:1007A0004E9AF60120813181F501808191812817CF
:1007B000390719F4C5010E945302F6011182108213
:1007C0009881907E988310923A017FBEA4CF1F92A9
:1007D0000F920FB60F9211242F933F934F935F9375
:1007E0006F937F938F939F93AF93BF93EF93FF93F9
:1007F0008BE391E00E94D20181E080933A01FF9166
:10080000EF91BF91AF919F918F917F916F915F9188
:100810004F913F912F910F900FBE0F901F90189501
:100820001F920F920FB60F921124EF92FF920F9327
:100830001F932F933F934F935F936F937F938F9368
:100840009F93AF93BF93CF93EF93FF93C0915101C9
:1008500086B1809351018091510182FD18C0E090D2
:100860001701F09018010091190110911A012091BF
:100870001B0130911C0140911D0150911E0160919E
:100880001F0170912001809121010E94F502809149
:100890005101C827C3FF18C0E0902D01F0902E0130
:1008A00000912F01109130012091310130913201DE
:1008B00040913301509134016091350170913601BE
:1008C000809137010E94F502FF91EF91CF91BF9186
:1008D000AF919F918F917F916F915F914F913F91D8
:1008E0002F911F910F91FF90EF900F900FBE0F90DF
:1008F0001F9018951F920F920FB60F9211244F92CE
:100900005F926F927F928F929F92AF92BF92CF929F
:10091000DF92EF92FF920F931F932F933F934F938A
:100920005F936F937F938F939F93AF93BF93EF9357
:10093000FF93CF93DF9300D000D0CDB7DEB7E09127
:100940003801F0E08091780090E002E511E0EE0FD0
:10095000FF1FEE5AFE4F9183808320917900922BE6
:1009600091838083D8012D913C91AAEFB0E00E9441
:1009700028070F2E88248A94F3E09F2EA12CB12CF7
:10098000F02DA50194010E940307DA01C9018D57DA
:100990009109A109B10989839A83AB83BC83D801EA
:1009A00012962D913C911397AAEFB0E00E94280770
:1009B000A50194010E94030729013A01BDE74B1AE2
:1009C000510861087108D42CF80124813581A4E60E
:1009D000B0E00E942807A50194010E940307490185
:1009E0005A01F2E38F1A9108A108B108C82C898135
:1009F0008734DCF0E2E2F1E084E0182F8383298180
:100A00002483E0902201F090230100912401309191
:100A10002701409128015091290160912A0170918C
:100A20002B0180912C010E94F50296E49D15DCF4C7
:100A3000E2E2F1E085E0182F8383242D4482E090E8
:100A40002201F0902301009124013091270140916F
:100A500028015091290160912A0170912B01809108
:100A60002C010E94F502ADE2AC15DCF4E2E2F1E00B
:100A700086E0182F8383282D8482E0902201F09055
:100A800023010091240130912701409128015091C8
:100A9000290160912A0170912B0180912C010E9403
:100AA000F502809138018F5F833018F4809338010C
:100AB00008C010923801ECE0F1E0B981B3834482C0
:100AC000858280913801813051F018F0823069F0D0
:100AD00012C0ECE7F0E08081807F808311C0ECE7FA
:100AE000F0E08081867F80830BC0ECE7F0E08081BE
:100AF000877F808305C0ECE7F0E08081807F808382
:100B0000EAE7F0E08081806480830F900F900F907F
:100B10000F90DF91CF91FF91EF91BF91AF919F9196
:100B20008F917F916F915F914F913F912F911F9185
:100B30000F91FF90EF90DF90CF90BF90AF909F907C
:100B40008F907F906F905F904F900F900FBE0F909F
:100B50001F9018951F920F920FB60F9211242F938A
:100B60003F934F935F936F937F938F939F93AF9335
:100B7000BF93EF93FF930E94E502E09100014E2F97
:100B800050E0FA013197E033F10508F028C1E65A48
:100B9000FF4F0C9422078E3E09F024C110924701AA
:100BA00010924601E8E4F1E08081807E808388E055
:100BB000E9E4F1E0DF011D928A95E9F780E2809394
:100BC000000110C1E6E4F1E090E0880F991F880F62
:100BD000991F880F991F20813181822B932B91833C
:100BE000808380E380930001FDC0E6E4F1E0982F6C
:100BF00092959695977020813181292B318320839E
:100C0000282F22952F70E8E4F1E0908120FB90F9E5
:100C10008F70880F917E892B808380FF0BC086E4C4
:100C200091E00E94530281E08093390180E180933A
:100C30000001D8C081E080930001D4C080934901B5
:100C40002091000130E08091480186958F7090E0FE
:100C50002817390724F482E080930001C3C086E49A
:100C600091E00E94530281E08093390180E18093FA
:100C70000001B8C080934A012091000130E08091CA
:100C8000480186958F7090E02817390724F483E097
:100C900080930001A7C086E491E00E94530281E0A6
:100CA0008093390180E1809300019CC080934B01C7
:100CB0002091000130E08091480186958F7090E08E
:100CC0002817390724F484E0809300018BC086E460
:100CD00091E00E94530281E08093390180E180938A
:100CE000000180C080934C012091000130E0809190
:100CF000480186958F7090E02817390724F485E025
:100D0000809300016FC086E491E00E94530281E06D
:100D10008093390180E18093000164C080934D018C
:100D20002091000130E08091480186958F7090E01D
:100D30002817390724F486E08093000153C086E425
:100D400091E00E94530281E08093390180E1809319
:100D5000000148C080934E012091000130E0809155
:100D6000480186958F7090E02817390724F487E0B2
:100D70008093000137C086E491E00E94530281E035
:100D80008093390180E1809300012CC080934F0152
:100D90002091000130E08091480186958F7090E0AD
:100DA0002817390724F488E0809300011BC086E4EB
:100DB00091E00E94530281E08093390180E18093A9
:100DC000000110C08093500186E491E00E9453021C
:100DD00081E08093390180E18093000103C080E1CC
:100DE00080930001FF91EF91BF91AF919F918F91FF
:100DF0007F916F915F914F913F912F910F900FBE17
:100E00000F901F901895052E97FB1EF400940E94DA
:100E10001A0757FD07D00E94370707FC03D04EF48E
:100E20000C941A0750954095309521953F4F4F4FA0
:100E30005F4F089590958095709561957F4F8F4F86
:100E40009F4F0895EE0FFF1F0590F491E02D099438
:100E5000A29FB001B39FC001A39F700D811D1124FB
:100E6000911DB29F700D811D1124911D0895A1E265
:100E70001A2EAA1BBB1BFD010DC0AA1FBB1FEE1F14
:100E8000FF1FA217B307E407F50720F0A21BB30B5F
:100E9000E40BF50B661F771F881F991F1A9469F7DB
:100EA00060957095809590959B01AC01BD01CF0137
:060EB0000895F894FFCF45
:100EB600EE6902010000000000000000F0011000D1
:100EC60000000000000000700001000000000000AB
:100ED6000000680005000000000000000008000196
:080EE600000000000000000004
:00000001FF
