:100000000C945A000C9464000C9464000C946400EA
:100010000C9464000C9464000C9464000C946400D0
:100020000C9464000C9464000C9464000C946400C0
:100030000C9464000C9464000C9464000C946400B0
:100040000C9464000C9464000C9464000C946400A0
:100050000C9464000C9464000C9464000C94640090
:100060000C9464000C9464000C9464000C94640080
:100070000C9464000C9464000C9464000C94640070
:100080000C9464000C9464000C9464000C94640060
:100090000C9464000C9464000C9464000C94640050
:1000A0000C9464000C9464000C9464000C94640040
:1000B0000C94640011241FBECFEFD8E0DEBFCDBF8B
:1000C0000E9466000C9493000C940000539A549A7A
:1000D000559A569A4B9A2FEF89E698E12150804025
:1000E0009040E1F700C000004C9A2FEF89E698E1BC
:1000F000215080409040E1F700C000004D9A2FEF62
:1001000089E698E1215080409040E1F700C000006E
:100110004E9A2FEF89E698E1215080409040E1F718
:0A01200000C00000D7CFF894FFCF15
:00000001FF
