:100000000C945A000C94A9030C9477000C9477007C
:100010000C9477000C9477000C9477000C94770084
:100020000C9477000C9477000C9477000C94770074
:100030000C9477000C9477000C9477000C94770064
:100040000C9477000C9477000C9477000C94770054
:100050000C9477000C94D2030C9477000C947700E6
:100060000C9477000C9477000C9477000C94770034
:100070000C9477000C9477000C9477000C94770024
:100080000C9477000C9477000C9477000C94770014
:100090000C9477000C9477000C9477000C94770004
:1000A0000C9477000C9477000C9477000C947700F4
:1000B0000C94770011241FBECFEFD8E0DEBFCDBF78
:1000C00011E0A0E0B1E0ECEFF7E002C005900D9286
:1000D000A832B107D9F721E0A8E2B1E001C01D9232
:1000E000A834B207E1F70E9403030C94FC030C94BC
:1000F00000005298539A549A559A569A6A986B9857
:10010000389839980895E89AE9E6F0E080818C7F84
:10011000808378940895229A239A259A2A9A2B9874
:100120002D988CB580658CBD8CB583608CBD089591
:100130008EBD0DB407FEFDCF87EC90E00197F1F77F
:1001400000C000008EB508959093C5008093C40050
:10015000E1ECF0E0808188618083E2ECF0E0808176
:10016000866080830895E0ECF0E080818823ECF7DE
:100170008091C6000895E0ECF0E0908195FFFDCFFE
:100180008093C6000895EF92FF920F931F93CF9331
:10019000DF93FC0101900020E9F731977F01E81A15
:1001A000F90A61F08C01C0E0D0E0F80181918F0183
:1001B0000E94BB002196EC16FD06B9F7DF91CF91A6
:1001C0001F910F91FF90EF900895CF93DF93D82F59
:1001D000C62F2A9882E00E9498008D2F0E949800D6
:1001E0008C2F0E9498002A9ADF91CF910895CF9387
:1001F000C82F2A9883E00E9498008C2F0E949800B4
:100200008FEF0E9498002A9ACF9108951F93CF9361
:10021000DF93182FD62FC42F2A9885E00E949800CC
:10022000812F0E9498008D2F0E9498008C2F0E9491
:1002300098002A9ADF91CF911F9108952A980E94E1
:1002400098008FEF0E9498002A9A0895CF93DF9329
:10025000C82F2A9880EC0E9498002A9A8AE68A95EC
:10026000F1F700C02A9882E00E94980088E20E947C
:10027000980082E00E94980080E90E9498008C2FEC
:100280000E94980083E00E9498002A9A8AE20E94C5
:10029000F7008C1719F05E9A80E0AEC060E08CE049
:1002A0000E94E50060E08DE00E94E5002A9882E06F
:1002B0000E94980080E20E94980080E00E949800CE
:1002C00080EE0E9498002A9A2A9882E00E94980064
:1002D00084E20E94980080E00E94980080EE0E94D4
:1002E00098002A9A2A9882E00E94980080E00E9452
:1002F00098008091010190910201969587959695BD
:100300008795969587950E949800C1E0D1E08881F5
:100310008295880F807E0E9498002A9A2A9882E00F
:100320000E94980084E00E949800809101019091C1
:1003300002019695879596958795969587950E9443
:10034000980088818295880F807E0E9498002A9A62
:100350002A9882E00E94980088E00E94980080918C
:1003600001019091020196958795969587959695AE
:1003700087950E94980088818295880F807E0E94D0
:1003800098002A9A2A9882E00E94980080E10E94B0
:10039000980080910101909102019695879596951C
:1003A0008795969587950E94980088818295880FF9
:1003B000807E0E9498002A9A2A9882E00E949800E3
:1003C00084E10E949800809101019091020196952C
:1003D000879596958795969587950E949800888130
:1003E0008295880F807E0E9498002A9A60E08FE0B4
:1003F0000E94E5005E9881E0DF91CF910895CF9251
:10040000DF92EF92FF920F931F93CF93DF931F9290
:10041000CDB7DEB76C0180EB0E941E018983998104
:10042000892F807496FD06C0998199230CF05EC0D7
:1004300084E901C080E92A980E9498008FEF0E9409
:10044000980028E0829FC0011124F60191838083E7
:100450008FEF0E949800282F229526952770F6018D
:1004600080819181822B918380838FEF0E949800FD
:100470008FEF0E9498008FEF0E949800982F9F7036
:10048000292F220FF6018281817E822B828329818E
:1004900023FB222720F920FB80F982839923A1F0F6
:1004A00086010D5F1F4F9150E92EF12CF4E0EF0E05
:1004B000F11CEC0CFD1C8FEF0E949800F801819359
:1004C0008F01EE15FF05B9F72A9A898186FF06C0CC
:1004D00040E061E08CE20E94060105C040E062E07D
:1004E0008CE20E940601898187708F5F0F90DF91F7
:1004F000CF911F910F91FF90EF90DF90CF900895D3
:10050000BF92CF92DF92EF92FF920F931F93CF9300
:10051000DF931F92CDB7DEB76C0180EA0E941E0107
:100520008983898182FF0AC0898184FF09C089810A
:1005300086FD5DC06894BB24B2F805C0B12C03C031
:100540006894BB24B1F82A988B2D80640E9498008F
:10055000F6018081918196958795969587959695D8
:1005600087950E949800F60180818295880F807E91
:100570000E94980080E00E94980080E00E9498000D
:10058000F6018281F82EF694FF2DFF70FF2E80FF7A
:1005900005C08F2F80640E94980018C08F2F0E9482
:1005A0009800FF2099F086010D5F1F4FFA94EF2C01
:1005B000F12C84E0E80EF11CEC0CFD1CF80181919B
:1005C0008F010E9498000E151F05C1F72A9AF5E0C9
:1005D000FA95F1F700002A98B11002C0BB24B39439
:1005E0008B2D80680E9498002A9A8B2D01C080E094
:1005F0000F90DF91CF911F910F91FF90EF90DF90BF
:10060000CF90BF9008950E9479000E94830087E6F2
:1006100090E00E94A4000E948B0081E00E942601CD
:10062000882329F083E091E00E94C30004C085E1A3
:1006300091E00E94C3008AE00E94BB008DE00E940E
:10064000BB008091000190E09093360180933501CA
:10065000E7E3F1E08081807E826080830F2EF0EC02
:10066000CF2ED12CF02D0F2EF5E3EF2EF1E0FF2E43
:10067000F02D0AE211E0CCE2D1E0912CA12CF601A0
:10068000808188233CF00E94B300F7018383C70177
:100690000E94800280912901882391F1F894F80149
:1006A00081810E94BB00F80180810E94BB0088818B
:1006B000879588278795880F880B0E94BB008881C3
:1006C00086958F700E94BB00888180FD16C086953C
:1006D0008F7099F0892D9A2DB12CFC01E65DFE4FAB
:1006E00083810E94BB00B3948B2D90E028812695D6
:1006F0002F7030E08217930784F3109229017894C9
:100700004B9AFFEF23EC89E0F15020408040E1F765
:1007100000C000004C9A9FEFE3ECF9E09150E040FC
:10072000F040E1F700C000004D9A2FEF83EC99E014
:10073000215080409040E1F700C000004E9AEFEF5A
:10074000F3EC29E0E150F0402040E1F700C0000068
:1007500096CF1F920F920FB60F9211242F933F93B3
:100760004F935F936F937F938F939F93AF93BF93B9
:10077000EF93FF938AE291E00E94FF0181E0809372
:100780002901FF91EF91BF91AF919F918F917F913F
:100790006F915F914F913F912F910F900FBE0F90EE
:1007A0001F9018951F920F920FB60F9211242F933E
:1007B0003F938F93EF93FF938091280120917800CE
:1007C00030917900E82FF0E0EE0FFF1FE05CFE4F64
:1007D000318320838F5F843018F48093280102C016
:1007E00010922801FF91EF918F913F912F910F90DF
:0C07F0000FBE0F901F901895F894FFCFDB
:1007FC0020010043616E20496E69742053554343B8
:10080C00455353210043616E20496E697420464163
:08081C00494C55524521000032
:00000001FF
