S00B00005743422E737265633D
S11300000C945A000C940E040C9477000C94770012
S11300100C9477000C9477000C9477000C94770080
S11300200C9477000C9477000C9477000C94770070
S11300300C9477000C9477000C9477000C94770060
S11300400C9477000C9477000C9477000C94770050
S11300500C9477000C9477000C9477000C94770040
S11300600C9477000C9477000C9477000C94770030
S11300700C9477000C9477000C9477000C94770020
S11300800C9477000C9477000C9477000C94770010
S11300900C9477000C9477000C9477000C94770000
S11300A00C9477000C9477000C9477000C947700F0
S11300B00C94770011241FBECFEFD8E0DEBFCDBF74
S11300C012E0A0E0B1E0E2E7F8E002C005900D9292
S11300D0AE31B107D9F722E0AEE1B2E001C01D9222
S11300E0AA32B207E1F70E941C030C9437040C9463
S11300F0000052980895E89AE9E6F0E080818C7F48
S1130100808378940895229A239A259A2A9A2B9880
S11301102D988CB580658CBD8CB583608CBD08959D
S11301208EBD0DB407FEFDCF87EC90E00197F1F78B
S113013000C000008EB50895CF93DF93D82FC62F4B
S11301402A9882E00E9490008D2F0E9490008C2FAC
S11301500E9490002A9ADF91CF910895CF93C82FDF
S11301602A9883E00E9490008C2F0E9490008FEFC9
S11301700E9490002A9ACF9108951F93CF93DF9302
S1130180182FD62FC42F2A9885E00E949000812F23
S11301900E9490008D2F0E9490008C2F0E9490004E
S11301A02A9ADF91CF911F9108952A980E94900076
S11301B08FEF0E9490002A9A0895CF93C82F2A980F
S11301C080EC0E9490002A9A8AE68A95F1F700C092
S11301D02A9882E00E94900088E20E94900082E0C7
S11301E00E94900080E90E9490008C2F0E94900051
S11301F083E00E9490002A9A8AE20E94AE008C1347
S11302007EC060E08CE00E949C0060E08DE00E9473
S11302109C002A9882E00E94900080E20E94900054
S113022080E00E94900080EE0E9490002A9A2A9812
S113023082E00E94900084E20E94900080E00E948C
S1130240900080EE0E9490002A9A2A9882E00E94F0
S1130250900080E00E94900080E00E94900080E482
S11302600E9490002A9A2A9882E00E94900084E0DA
S11302700E94900080E00E94900080E40E94900020
S11302802A9A2A9882E00E94900088E00E949000B6
S113029080E00E94900080E40E9490002A9A2A98AC
S11302A082E00E94900080E10E94900080E00E9421
S11302B0900080E40E9490002A9A2A9882E00E948A
S11302C0900084E10E94900080E00E94900080E40D
S11302D00E9490002A9A2A9882E00E94900088E165
S11302E00E94900080E00E94900080E40E949000B0
S11302F02A9A60E08FE00E949C0081E001C080E0C7
S1130300CF910895CF92DF92EF92FF920F931F93B4
S1130310CF93DF931F92CDB7DEB76C0180EB0E94C1
S1130320D50089839981892F807496FD06C09981AF
S113033099230CF05EC084E901C080E92A980E94E8
S113034090008FEF0E94900028E0829FC00111244A
S1130350F601918380838FEF0E949000282F2295CD
S113036026952770F60180819181822B9183808369
S11303708FEF0E9490008FEF0E9490008FEF0E94F9
S11303809000982F9F70292F220FF6018281817E81
S1130390822B8283298123FB222720F920FB80F9E9
S11303A082839923A1F086010D5F1F4F9150E92E9E
S11303B0F12CF4E0EF0EF11CEC0CFD1C8FEF0E940D
S11303C09000F80181938F01EE15FF05B9F72A9A81
S11303D0898186FF06C040E061E08CE20E94BD0096
S11303E005C040E062E08CE20E94BD008981877014
S11303F08F5F0F90DF91CF911F910F91FF90EF903E
S1130400DF90CF900895BF92CF92DF92EF92FF9248
S11304100F931F93CF93DF931F92CDB7DEB76C0179
S113042080EA0E94D5008983898182FF0AC089817C
S113043084FF09C0898186FD69C06894BB24B2F831
S113044005C0B12C03C06894BB24B1F82A988B2D45
S113045080640E949000D6018D919C919695879519
S113046096958795969587950E949000F6018081D0
S11304708295880F807E0E94900080E00E94900008
S113048080E00E949000D60112968C91E82EE694AA
S1130490BE2DBF70EB2E80FF05C08B2F80640E94A1
S11304A0900017C08B2F0E949000EE2091F08601DF
S11304B00D5F1F4FEA94F12CE4E0EE0EF11CEC0CFE
S11304C0FD1CD8018D918D010E9490000E151F0511
S11304D0C1F72A9AB5E0BA95F1F700002A98B1104D
S11304E002C0BB24B3948B2D80680E9490002A9A8A
S11304F0F601118210828281807E8283339688E0A5
S1130500DF011D928A95E9F78B2D01C080E00F90E1
S1130510DF91CF911F910F91FF90EF90DF90CF90DB
S1130520BF9008956B9A6A9A219A209A579A569A7C
S1130530399A389A549A539A559A73987298299872
S113054028985F985E9841984098439842985C98A0
S11305505B985D980E9479000E947B000E94830052
S113056081E00E94DD0008959BB180E189278BB969
S113057008959BB188E089278BB9089598B188E0E4
S1130580892788B92FEF80E792E02150804090407E
S1130590E1F700C000004398089598B184E08927EA
S11305A088B92FEF80E792E0215080409040E1F736
S11305B000C000004298089598B182E0892788B964
S11305C02FEF80E792E0215080409040E1F700C097
S11305D000004198089598B181E0892788B92FEFE8
S11305E080E792E0215080409040E1F700C0000095
S11305F0409808959EB188E089278EB908959EB1E8
S113060084E089278EB9089595B182E0892785B958
S1130610089595B181E0892785B908958BB18058F3
S11306208BB908959BB180E489278BB908959BB158
S113063080E289278BB908950E949202CFE1D2E02B
S113064008E012E00F2EFDEFEF2EF1E0FF2EF02D6B
S11306500F2EF2EFCF2EF1E0DF2EF02D0F2EF7EE5E
S1130660AF2EF1E0BF2EF02D0F2EFCED8F2EF1E01A
S11306709F2EF02D0F2EF1ED6F2EF1E07F2EF02D39
S11306800F2EF6EC4F2EF1E05F2EF02D80911E021E
S11306908823E1F33FB6F89488819981A3E1B2E01D
S11306A02D913C918217930739F484E891E00E94DC
S11306B003020E94B402A0C0F80120813181821794
S11306C0930739F489E791E00E9403020E94B9027A
S11306D093C0D7012D913C918217930739F48EE68C
S11306E091E00E9403020E94BE0286C0F6012081AE
S11306F031818217930739F483E691E00E94030263
S11307000E94CD0279C0D5012D913C9182179307A7
S113071039F488E591E00E9403020E94DC026CC077
S1130720F401208131818217930739F48DE491E03B
S11307300E9403020E94EB025FC0D3012D913C9101
S11307408217930739F482E491E00E9403020E9425
S1130750FA0252C0F201208131818217930739F4E1
S113076087E391E00E9403020E94FF0245C0ABEBC5
S1130770B1E02D913C918217930739F48CE291E01A
S11307800E9403020E94040337C0E0EBF1E02081E1
S113079031818217930739F481E291E00E940302C8
S11307A00E94090329C0A5EAB1E02D913C9182176A
S11307B0930739F486E191E00E9403020E940E033C
S11307C01BC0EAE9F1E0208131818217930739F4F3
S11307D08BE091E00E9403020E9412030DC020915D
S11307E08F01309190018217930731F480E091E0FA
S11307F00E9403020E94170319821882E1E2F2E0C8
S11308008081807E808388E0E2E2F2E0DF011D9255
S11308108A95E9F710921E023FBE38CF1F920F92BD
S11308200FB60F9211242F933F934F935F936F93BF
S11308307F938F939F93AF93BF93EF93FF938FE136
S113084092E00E94820181E080931E02FF91EF9169
S1130850BF91AF919F918F917F916F915F914F91D4
S11308603F912F910F900FBE0F901F901895F89401
S1050870FFCFB4
S113087240010100000000000000003801010000F6
S11308820000000000003001010000000000000030
S11308920028010100000000000000002001010006
S11308A20000000000000018010100000000000028
S11308B20000100101000000000000000008010116
S11308C20000000000000000000101000000000020
S11308D2000000F800010000000000000000F00029
S11308E2010000000000000000E800010000000018
S11308F200000000E000010000000000000000DA37
S113090200010000000000000000D200010000000D
S11309120000000000CA0001000000000000000006
S1130922C200010000000000000000BA0001000043
S1130932000000000000B2000100000000000000FE
S113094200AA00010000000000000000A200010053
S1130952000000000000009A0001000000000000F6
S1130962000092000100000000000000008A000163
S113097200000000000000008200010000000000EE
S11109820000007A00010000000000000000E8
S9030000FC
