S00B00005743422E737265633D
S11300000C945A000C9477000C9477000C947700AD
S11300100C9477000C9477000C9477000C94770080
S11300200C9477000C9477000C9477000C94770070
S11300300C9477000C9477000C9477000C94770060
S11300400C9477000C9477000C9477000C94770050
S11300500C9477000C9477000C9477000C94770040
S11300600C9477000C9477000C9477000C94770030
S11300700C9477000C9477000C9477000C94770020
S11300800C9477000C9477000C9477000C94770010
S11300900C9477000C9477000C9477000C94770000
S11300A00C9477000C9477000C9477000C947700F0
S11300B00C94770011241FBECFEFD8E0DEBFCDBF74
S11300C011E0A0E0B1E0EEE8F3E002C005900D928B
S11300D0A030B107D9F721E0A0E0B1E001C01D9242
S11300E0AB30B207E1F70E94A9010C94C5010C944E
S11300F0000052980895E89AE9E6F0E080818C7F48
S1130100808378940895229A239A259A2A9A2B9880
S11301102D988CB580658CBD8CB583608CBD08959D
S11301208EBD0DB407FEFDCF87EC90E00197F1F78B
S113013000C000008EB50895CF93DF93D82FC62F4B
S11301402A9882E00E9490008D2F0E9490008C2FAC
S11301500E9490002A9ADF91CF910895CF93C82FDF
S11301602A9883E00E9490008C2F0E9490008FEFC9
S11301700E9490002A9ACF9108952A980E94900094
S11301808FEF0E9490002A9A0895CF93C82F2A983F
S113019080EC0E9490002A9A8AE68A95F1F700C0C2
S11301A02A9882E00E94900088E20E94900082E0F7
S11301B00E94900080E90E9490008C2F0E94900081
S11301C083E00E9490002A9A8AE20E94AE00C8133B
S11301D016C060E08CE00E949C0060E08DE00E940C
S11301E09C0060E680E60E949C0060E680E70E9436
S11301F09C0060E08FE00E949C0081E001C080E0F0
S1130200CF910895BF92CF92DF92EF92FF920F9316
S11302101F93CF93DF931F92CDB7DEB76C0180EAB3
S11302200E94BD008983898182FF0AC0898184FF7D
S113023009C0898186FD5DC06894BB24B2F805C0FD
S1130240B12C03C06894BB24B1F82A988B2D806428
S11302500E949000F60180819181969587959695EC
S11302608795969587950E949000F60180818295E6
S1130270880F807E0E94900080E00E94900080E0C1
S11302800E949000F6018281F82EF694FF2DFF70F3
S1130290FF2E80FF05C08F2F80640E94900018C03D
S11302A08F2F0E949000FF2099F086010D5F1F4F51
S11302B0FA94EF2CF12C84E0E80EF11CEC0CFD1CFC
S11302C0F80181918F010E9490000E151F05C1F75E
S11302D02A9AF5E0FA95F1F700002A98B11002C0C5
S11302E0BB24B3948B2D80680E9490002A9A8B2D96
S11302F001C080E00F90DF91CF911F910F91FF908B
S1130300EF90DF90CF90BF900895209A219A389A69
S1130310399A3A9A3B9A539A549A559A569A579AB2
S11303206A9A6B9A289829984098419842984398D9
S11303305B985C985D985E985F98729873980E9439
S113034079000E947B000E94830081E00E94C50026
S113035008950E948501E0E0F1E080E190E091835E
S11303608083A2E0B1E08C91817E88608E7F8C9343
S113037086E4838385E5848383E485838BE48683B1
S111038080E091E00E940201FBCFF894FFCFD1
S9030000FC
