:100000000C945A000C94DD020C9477000C94770049
:100010000C9477000C9477000C9477000C94770084
:100020000C9477000C9477000C9477000C94770074
:100030000C9477000C9477000C9477000C94770064
:100040000C9477000C9477000C9477000C94770054
:100050000C9477000C9477000C9477000C94770044
:100060000C9477000C9477000C9477000C94770034
:100070000C9477000C9477000C9477000C94770024
:100080000C9477000C9477000C9477000C94770014
:100090000C9477000C9477000C9477000C94770004
:1000A0000C9477000C9477000C9477000C947700F4
:1000B0000C94770011241FBECFEFD8E0DEBFCDBF78
:1000C00011E0A0E0B1E0E0E1F6E002C005900D92A1
:1000D000A631B107D9F721E0A6E1B1E001C01D9238
:1000E000A232B207E1F70E94BA020C9406030C9404
:1000F000000052980895E89AE9E6F0E080818C7F4C
:10010000808378940895229A239A259A2A9A2B9884
:100110002D988CB580658CBD8CB583608CBD0895A1
:100120008EBD0DB407FEFDCF87EC90E00197F1F78F
:1001300000C000008EB50895CF93DF93D82FC62F4F
:100140002A9882E00E9490008D2F0E9490008C2FB0
:100150000E9490002A9ADF91CF910895CF93C82FE3
:100160002A9883E00E9490008C2F0E9490008FEFCD
:100170000E9490002A9ACF9108951F93CF93DF9306
:10018000182FD62FC42F2A9885E00E949000812F27
:100190000E9490008D2F0E9490008C2F0E94900052
:1001A0002A9ADF91CF911F9108952A980E9490007A
:1001B0008FEF0E9490002A9A0895CF93C82F2A9813
:1001C00080EC0E9490002A9A8AE68A95F1F700C096
:1001D0002A9882E00E94900088E20E94900082E0CB
:1001E0000E94900080E90E9490008C2F0E94900055
:1001F00083E00E9490002A9A8AE20E94AE00C8130F
:100200007EC060E08CE00E949C0060E08DE00E9477
:100210009C002A9882E00E94900080E20E94900058
:1002200080E00E94900080EE0E9490002A9A2A9816
:1002300082E00E94900084E20E94900080E00E9490
:10024000900080EE0E9490002A9A2A9882E00E94F4
:10025000900080E00E94900080E00E94900080E486
:100260000E9490002A9A2A9882E00E94900084E0DE
:100270000E94900080E00E94900080E40E94900024
:100280002A9A2A9882E00E94900088E00E949000BA
:1002900080E00E94900080E40E9490002A9A2A98B0
:1002A00082E00E94900080E10E94900080E00E9425
:1002B000900080E40E9490002A9A2A9882E00E948E
:1002C000900084E10E94900080E00E94900080E411
:1002D0000E9490002A9A2A9882E00E94900088E169
:1002E0000E94900080E00E94900080E40E949000B4
:1002F0002A9A60E08FE00E949C0081E001C080E0CB
:10030000CF910895CF92DF92EF92FF920F931F93B8
:10031000CF93DF931F92CDB7DEB76C0180EB0E94C5
:10032000D50089839981892F807496FD06C09981B3
:1003300099230CF05DC084E901C080E92A980E94ED
:1003400090008FEF0E94900028E0829FC00111244E
:10035000F601918380838FEF0E949000282F2295D1
:1003600026952770F60180819181822B918380836D
:100370008FEF0E9490008FEF0E9490008FEF0E94FD
:1003800090008F70282F220FF6019281917E922B80
:100390009283298123FB222720F920FB90F9928365
:1003A0008823A1F086010D5F1F4F8150E82EF12CAC
:1003B000F4E0EF0EF11CEC0CFD1C8FEF0E9490009E
:1003C000F80181938F01EE15FF05B9F72A9A89810B
:1003D00086FF06C040E061E08CE20E94BD0005C0DF
:1003E00040E062E08CE20E94BD00898187708F5FEF
:1003F0000F90DF91CF911F910F91FF90EF90DF90C1
:10040000CF900895BF92CF92DF92EF92FF920F9319
:100410001F93CF93DF931F92CDB7DEB76C0180EAB5
:100420000E94D5008983898182FF0AC0898184FF67
:1004300009C0898186FD69C06894BB24B2F805C0F3
:10044000B12C03C06894BB24B1F82A988B2D80642A
:100450000E949000D6018D919C91969587959695D6
:100460008795969587950E949000F60180818295E8
:10047000880F807E0E94900080E00E94900080E0C3
:100480000E949000D60112968C91E82EE694BE2D23
:10049000BF70EB2E80FF05C08B2F80640E94900000
:1004A00017C08B2F0E949000EE2091F086010D5F07
:1004B0001F4FEA94F12CE4E0EE0EF11CEC0CFD1C55
:1004C000D8018D918D010E9490000E151F05C1F776
:1004D0002A9AB5E0BA95F1F700002A98B11002C047
:1004E000BB24B3948B2D80680E9490002A9AF60159
:1004F000118210828281807E8283339688E0DF01C0
:100500001D928A95E9F78B2D01C080E00F90DF9155
:10051000CF911F910F91FF90EF90DF90CF90BF9000
:100520000895209A219A389A399A3A9A3B9A539A7E
:10053000549A559A569A579A6A9A6B9A2898299873
:1005400040984198429843985B985C985D985E9873
:100550005F98729873980E9479000E947B000E94B5
:10056000830081E00E94DD0008959BB180E189272E
:100570008BB908950E9491020F2EF7E1EF2EF1E062
:10058000FF2EF02D0BE011E0809116018823E1F39E
:10059000CFB7F894F70120813181F80180819181F2
:1005A0002817390731F480E091E00E9402020E948E
:1005B000B50210921601CFBFE7CF1F920F920FB670
:1005C0000F9211242F933F934F935F936F937F93D9
:1005D0008F939F93AF93BF93EF93FF9387E191E046
:1005E0000E94820181E080931601FF91EF91BF91FB
:1005F000AF919F918F917F916F915F914F913F91BB
:100600002F910F900FBE0F901F901895F894FFCF69
:10061000E0000100000000000000007A000100007E
:06062000000000000000D4
:00000001FF
