S00F000063616E5F6275732E737265633A
S11300000C9454000C94BE020C9471000C94710076
S11300100C9471000C9471000C9471000C94710098
S11300200C9471000C9471000C9471000C94710088
S11300300C9471000C9471000C9471000C94710078
S11300400C9471000C9471000C94E7020C947100F0
S11300500C9471000C9471000C9471000C94710058
S11300600C9471000C94710041035A0373038C03C4
S1130070A503BE03D703F003FA03FA03FA03FA0352
S1130080FA03FA03FA030803FA03FA03FA03FA0376
S1130090FA03FA03FA03FA03FA03FA03FA03FA0374
S11300A0FA03FA03FA031B0311241FBECFEFD8E0AF
S11300B0DEBFCDBF11E0A0E0B1E0ECE2F8E002C0A9
S11300C005900D92A632B107D9F721E0A6E2B1E07E
S11300D001C01D92AD33B207E1F70E945C020C949B
S11300E014040C9400005298209A0895E89AE9E6C2
S11300F0F0E080818C7F808378940895229A239AFB
S1130100259A2A9A2B982D988CB580658CBD8CB530
S113011083608CBD08958EBD0DB407FEFDCF87ECC2
S113012090E00197F1F700C000008EB50895909318
S1130130C5008093C400E1ECF0E08081886980838D
S1130140E2ECF0E08081866080830895E0ECF0E0EA
S113015080818823ECF78091C6000895E0ECF0E0FC
S1130160908195FFFDCF8093C6000895EF92FF9292
S11301700F931F93CF93DF93FC0101900020E9F7C5
S113018031977F01E81AF90A61F08C01C0E0D0E0F0
S1130190F80181918F010E94AE002196EC16FD06B4
S11301A0B9F7DF91CF911F910F91FF90EF900895D0
S11301B0CF93DF93D82FC62F2A9882E00E948B001A
S11301C08D2F0E948B008C2F0E948B002A9ADF9126
S11301D0CF910895CF93C82F2A9883E00E948B0073
S11301E08C2F0E948B008FEF0E948B002A9ACF9154
S11301F008951F93CF93DF93182FD62FC42F2A98D7
S113020085E00E948B00812F0E948B008D2F0E941D
S11302108B008C2F0E948B002A9ADF91CF911F9123
S113022008952A980E948B008FEF0E948B002A9ACF
S11302300895CF93C82F2A9880EC0E948B002A9AA5
S11302408AE68A95F1F700C02A9882E00E948B0022
S113025088E20E948B0082E00E948B0080E90E9469
S11302608B008C2F0E948B0083E00E948B002A9AC3
S11302708AE20E94EA008C1719F0289A80E016C0DE
S113028060E08CE00E94D80060E08DE00E94D8001D
S113029060E680E60E94D80060E680E70E94D8000D
S11302A060E08FE00E94D800289881E0CF91089503
S11302B0CF92DF92EF92FF920F931F93CF93DF932E
S11302C01F92CDB7DEB76C0180EB0E9411018983C8
S11302D09981892F807496FD06C0998199230CF029
S11302E05EC084E901C080E92A980E948B008FEFE8
S11302F00E948B0028E0829FC0011124F6019183A3
S113030080838FEF0E948B00282F229526952770DB
S1130310F60180819181822B918380838FEF0E94EB
S11303208B008FEF0E948B008FEF0E948B00982F21
S11303309F70292F220FF6018281817E822B828376
S1130340298123FB222720F920FB80F9828399232A
S1130350A1F086010D5F1F4F9150E92EF12CF4E0BE
S1130360EF0EF11CEC0CFD1C8FEF0E948B00F801CA
S113037081938F01EE15FF05B9F72A9A898186FFCB
S113038006C040E061E08CE20E94F90005C040E054
S113039062E08CE20E94F900898187708F5F0F9080
S11303A0DF91CF911F910F91FF90EF90DF90CF904D
S11303B00895BF92CF92DF92EF92FF920F931F9313
S11303C0CF93DF931F92CDB7DEB76C0180EA0E9412
S11303D011018983898182FF0AC0898184FF09C050
S11303E0898186FD5DC06894BB24B2F805C0B12C38
S11303F003C06894BB24B1F82A988B2D80640E94B2
S11304008B00F601808191819695879596958795C5
S1130410969587950E948B00F60180818295880FBE
S1130420807E0E948B0080E00E948B0080E00E940E
S11304308B00F6018281F82EF694FF2DFF70FF2EBB
S113044080FF05C08F2F80640E948B0018C08F2FFF
S11304500E948B00FF2099F086010D5F1F4FFA94D4
S1130460EF2CF12C84E0E80EF11CEC0CFD1CF801DF
S113047081918F010E948B000E151F05C1F72A9AE6
S1130480F5E0FA95F1F700002A98B11002C0BB24F8
S1130490B3948B2D80680E948B002A9A8B2D01C007
S11304A080E00F90DF91CF911F910F91FF90EF901B
S11304B0DF90CF90BF9008950E9473000E94760051
S11304C087E690E00E9497000E947E0081E00E94EF
S11304D01901882361F081E091E00E94B60007E2EF
S11304E011E0C9E2D1E0C12CD12CE12C05C083E19B
S11304F091E00E94B600F3CF809126018823E1F3B6
S1130500F894F801808191819695879596958795C1
S1130510969587950E94AE00F80190819295990F67
S1130520907E2881822F879588278795880F880B4E
S11305308295807F982B822F86958F70892B0E94BD
S1130540AE00888180FD16C086958F7099F02C2DA1
S11305503D2DFE2CF901E95DFE4F83810E94AE0022
S1130560F3942F2D30E0888186958F7090E02817C2
S1130570390784F3E09226017894BECF1F920F923C
S11305800FB60F9211242F933F934F935F936F9362
S11305907F938F939F93AF93BF93EF93FF9387E2E0
S11305A091E00E94580181E080932601FF91EF9130
S11305B0BF91AF919F918F917F916F915F914F9177
S11305C03F912F910F900FBE0F901F9018951F927F
S11305D00F920FB60F9211242F933F934F935F9373
S11305E06F937F938F939F93AF93BF93EF93FF93F7
S11305F00E94A600E09100014E2F50E0FA013197CD
S1130600E032F10508F0F6C0EC5CFF4F0C940E04E8
S1130610E2E3F1E090E0880F991F880F991F880F9B
S1130620991F20813181822B932B9183808380E2D7
S113063080930001E2C0E2E3F1E0982F9295969551
S1130640977020813181292B31832083282F229593
S11306502F70E4E3F1E0908120FB90F98F70880F14
S1130660917E892B808380FF08C082E391E00E9401
S1130670D90180E180930001C0C081E08093000132
S1130680BCC0809335012091000130E08091340199
S113069086958F7090E02817390724F482E08093C0
S11306A00001ABC082E391E00E94D90180E1809314
S11306B00001A3C0809336012091000130E08091B5
S11306C0340186958F7090E02817390724F483E06D
S11306D08093000192C082E391E00E94D90180E1FD
S11306E0809300018AC0809337012091000130E09B
S11306F08091340186958F7090E02817390724F48F
S113070084E08093000179C082E391E00E94D901E2
S113071080E18093000171C0809338012091000131
S113072030E08091340186958F7090E02817390766
S113073024F485E08093000160C082E391E00E948C
S1130740D90180E18093000158C080933901209140
S1130750000130E08091340186958F7090E0281775
S1130760390724F486E08093000147C082E391E0D6
S11307700E94D90180E1809300013FC080933A0137
S11307802091000130E08091340186958F7090E0D3
S11307902817390724F487E0809300012EC082E3F0
S11307A091E00E94D90180E18093000126C08093EA
S11307B03B012091000130E08091340186958F70D7
S11307C090E02817390724F488E08093000115C0CD
S11307D082E391E00E94D90180E1809300010DC081
S11307E080933C0182E391E00E94D90180E18093EF
S11307F0000103C080E180930001FF91EF91BF915C
S1130800AF919F918F917F916F915F914F913F91A4
S11308102F910F900FBE0F901F901895EE0FFF1F92
S10F08200590F491E02D0994F894FFCFAA
S113082C1043616E20496E697420535543434553FC
S113083C53210043616E20496E6974204641494C32
S109084C55524521000095
S9030000FC
