:100000000C9434000C9414020C9451000C94510084
:100010000C9451000C9451000C9451000C9451001C
:100020000C9451000C9451000C9451000C9451000C
:100030000C9451000C9451000C9451000C945100FC
:100040000C9451000C9451000C9451000C945100EC
:100050000C9451000C9451000C9451000C945100DC
:100060000C9451000C94510011241FBECFEFD8E026
:10007000DEBFCDBF11E0A0E0B1E0EEE7F4E002C0EA
:1000800005900D92A632B107D9F721E0A6E2B1E0C2
:1000900001C01D92AD33B207E1F70E94B1010C948B
:1000A0003D020C9400005298209A0895E89AE9E6DF
:1000B000F0E080818C7F808378940895229A239A3F
:1000C000259A2A9A2B982D988CB580658CBD8CB575
:1000D00083608CBD08958EBD0DB407FEFDCF87EC07
:1000E00090E00197F1F700C000008EB5089590935D
:1000F000C5008093C400E1ECF0E0808188618083DA
:10010000E2ECF0E08081866080830895E0ECF0E02E
:10011000908195FFFDCF8093C6000895EF92FF92E6
:100120000F931F93CF93DF93FC0101900020E9F719
:1001300031977F01E81AF90A61F08C01C0E0D0E044
:10014000F80181918F010E9486002196EC16FD0630
:10015000B9F7DF91CF911F910F91FF90EF90089524
:10016000CF93DF93D82FC62F2A9882E00E946B008E
:100170008D2F0E946B008C2F0E946B002A9ADF91BA
:10018000CF910895CF93C82F2A9883E00E946B00E7
:100190008C2F0E946B008FEF0E946B002A9ACF91E8
:1001A00008951F93CF93DF93182FD62FC42F2A982B
:1001B00085E00E946B00812F0E946B008D2F0E94B2
:1001C0006B008C2F0E946B002A9ADF91CF911F91B8
:1001D00008952A980E946B008FEF0E946B002A9A64
:1001E0000895CF93C82F2A9880EC0E946B002A9A1A
:1001F0008AE68A95F1F700C02A9882E00E946B0097
:1002000088E20E946B0082E00E946B0080E90E94FD
:100210006B008C2F0E946B0083E00E946B002A9A77
:100220008AE20E94C2008C1719F0289A80E016C05A
:1002300060E08CE00E94B00060E08DE00E94B000C1
:1002400060E680E60E94B00060E680E70E94B000B1
:1002500060E08FE00E94B000289881E0CF9108957F
:10026000CF92DF92EF92FF920F931F93CF93DF9382
:100270001F92CDB7DEB76C0180EB0E94E900898345
:100280009981892F807496FD06C0998199230CF07D
:100290005EC084E901C080E92A980E946B008FEF5C
:1002A0000E946B0028E0829FC0011124F601918317
:1002B00080838FEF0E946B00282F22952695277050
:1002C000F60180819181822B918380838FEF0E9440
:1002D0006B008FEF0E946B008FEF0E946B00982FD6
:1002E0009F70292F220FF6018281817E822B8283CB
:1002F000298123FB222720F920FB80F9828399237F
:10030000A1F086010D5F1F4F9150E92EF12CF4E012
:10031000EF0EF11CEC0CFD1C8FEF0E946B00F8013E
:1003200081938F01EE15FF05B9F72A9A898186FF1F
:1003300006C040E061E08CE20E94D10005C040E0D0
:1003400062E08CE20E94D100898187708F5F0F90FC
:10035000DF91CF911F910F91FF90EF90DF90CF90A1
:1003600008950E9453000E94560087E690E00E9484
:1003700077000E945E0081E00E94F100882329F04E
:1003800081E091E00E948E0004C083E191E00E9430
:100390008E008091000190E09093330180933201B0
:1003A000E4E3F1E08081807E8260808307E211E0F7
:1003B000C9E2D1E0C12CD12CE12C80912601882307
:1003C000E1F3F894F80181810E948600F8018081B0
:1003D0000E9486008881879588278795880F880BDB
:1003E0000E948600888186958F700E948600888191
:1003F00080FD16C086958F7099F02C2D3D2DFE2C1A
:10040000F901E95DFE4F83810E948600F3942F2D50
:1004100030E0888186958F7090E02817390784F343
:10042000E09226017894C9CF1F920F920FB60F92D7
:1004300011242F933F934F935F936F937F938F93E9
:100440009F93AF93BF93EF93FF9387E291E00E9456
:10045000300181E080932601FF91EF91BF91AF9130
:100460009F918F917F916F915F914F913F912F91CC
:0E0470000F900FBE0F901F901895F894FFCFBD
:10047E001043616E20496E697420535543434553B2
:10048E0053210043616E20496E6974204641494CE8
:06049E005552452100004B
:00000001FF
