S00F000063616E5F6275732E737265633A
S11300000C9454000C94DB020C9471000C94710059
S11300100C9471000C9471000C9471000C94710098
S11300200C9471000C9471000C9471000C94710088
S11300300C9471000C9471000C9471000C94710078
S11300400C9471000C9471000C9404030C947100D2
S11300500C9471000C9471000C9471000C94710058
S11300600C9471000C9471005E0377039003A90350
S1130070C203DB03F4030D04170417041704170465
S11300801704170417042503170417041704170487
S11300901704170417041704170417041704170484
S11300A0170417041704380311241FBECFEFD8E038
S11300B0DEBFCDBF11E0A0E0B1E0E6E6F8E002C0AB
S11300C005900D92A230B107D9F721E0A2E0B1E08A
S11300D001C01D92A931B207E1F70E94A4020C9459
S11300E031040C9400005298209A0895E89AE9E6A5
S11300F0F0E080818C7F808378940895229A239AFB
S1130100259A2A9A2B982D988CB580658CBD8CB530
S113011083608CBD08958EBD0DB407FEFDCF87ECC2
S113012090E00197F1F700C000008EB50895CF93D9
S1130130DF93D82FC62F2A9882E00E948B008D2F40
S11301400E948B008C2F0E948B002A9ADF91CF9102
S11301500895CF93C82F2A9883E00E948B008C2F98
S11301600E948B008FEF0E948B002A9ACF910895F2
S11301701F93CF93DF93182FD62FC42F2A9885E08F
S11301800E948B00812F0E948B008D2F0E948B0078
S11301908C2F0E948B002A9ADF91CF911F91089592
S11301A02A980E948B008FEF0E948B002A9A089550
S11301B0CF93C82F2A9880EC0E948B002A9A8AE653
S11301C08A95F1F700C02A9882E00E948B0088E2A9
S11301D00E948B0082E00E948B0080E90E948B00C9
S11301E08C2F0E948B0083E00E948B002A9A8AE263
S11301F00E94A9008C1719F0289A80E016C060E0CC
S11302008CE00E94970060E08DE00E94970060E619
S113021080E60E94970060E680E70E94970060E015
S11302208FE00E949700289881E0CF910895CF92A3
S1130230DF92EF92FF920F931F93CF93DF931F925E
S1130240CDB7DEB76C0180EB0E94D0008983998121
S1130250892F807496FD06C0998199230CF05EC0A5
S113026084E901C080E92A980E948B008FEF0E94E4
S11302708B0028E0829FC0011124F60191838083C2
S11302808FEF0E948B00282F229526952770F60168
S113029080819181822B918380838FEF0E948B00D8
S11302A08FEF0E948B008FEF0E948B00982F9F701E
S11302B0292F220FF6018281817E822B828329815C
S11302C023FB222720F920FB80F982839923A1F0C4
S11302D086010D5F1F4F9150E92EF12CF4E0EF0ED3
S11302E0F11CEC0CFD1C8FEF0E948B00F801819334
S11302F08F01EE15FF05B9F72A9A898186FF06C09A
S113030040E061E08CE20E94B80005C040E062E099
S11303108CE20E94B800898187708F5F0F90DF9113
S1130320CF911F910F91FF90EF90DF90CF900895A0
S1130330BF92CF92DF92EF92FF920F931F93CF93CE
S1130340DF931F92CDB7DEB76C0180EA0E94D00024
S11303508983898182FF0AC0898184FF09C08981D8
S113036086FD69C06894BB24B2F805C0B12C03C0F3
S11303706894BB24B1F82A988B2D80640E948B006A
S1130380D6018D919C91969587959695879596958E
S113039087950E948B00F60180818295880F807E6C
S11303A00E948B0080E00E948B0080E00E948B0002
S11303B0D60112968C91E82EE694BE2DBF70EB2EDA
S11303C080FF05C08B2F80640E948B0017C08B2F89
S11303D00E948B00EE2091F086010D5F1F4FEA947E
S11303E0F12CE4E0EE0EF11CEC0CFD1CD8018D9117
S11303F08D010E948B000E151F05C1F72A9AB5E0E6
S1130400BA95F1F700002A98B11002C0BB24B39446
S11304108B2D80680E948B002A9AF601118210822B
S11304208281807E8283339688E0DF011D928A95E3
S1130430E9F78B2D01C080E00F90DF91CF911F91E0
S11304400F91FF90EF90DF90CF90BF90089590931D
S1130450C5008093C400E1ECF0E08081886980836A
S1130460E2ECF0E08081866080830895E0ECF0E0C7
S113047080818823ECF78091C6000895E0ECF0E0D9
S1130480908195FFFDCF8093C6000895CF92DF92AF
S1130490EF92FF920F931F93CF93DF93CDB7DEB705
S11304A02B970FB6F894DEBF0FBECDBFE982FA8258
S11304B00B831C832D833E834F83588769877A87F8
S11304C08B87C980DA8006950F70C601969587954B
S11304D096958795969587950E943E02CC0CCC0CF8
S11304E0CC0CCC0CCC0C8B8181708295807F8C29B8
S11304F0802B0E943E028B8180FD17C0E02EF12CE0
S11305001E141F0494F480E090E010E0E4E0F0E0B6
S1130510EC0FFD1FE80FF91F80810E943E021F5F50
S1130520812F90E08E159F058CF32B960FB6F894CF
S1130530DEBF0FBECDBFDF91CF911F910F91FF9012
S1130540EF90DF90CF9008950E9473000E94760090
S113055087E690E00E9427020E947E0081E00E94CC
S1130560D800882321F08FEF0E943E0203C080E070
S11305700E943E02809102018823E1F3F894E09006
S11305800301F090040100910501109106012091EE
S11305900701309108014091090150910A016091CD
S11305A00B0170910C0180910D010E944602109282
S11305B002017894DFCF1F920F920FB60F9211248D
S11305C02F933F934F935F936F937F938F939F9357
S11305D0AF93BF93EF93FF9383E091E00E941701E1
S11305E081E080930201FF91EF91BF91AF919F91C0
S11305F08F917F916F915F914F913F912F910F90C8
S11306000FBE0F901F9018951F920F920FB60F9266
S113061011242F933F934F935F936F937F938F9303
S11306209F93AF93BF93EF93FF930E943602E091A1
S113063000014E2F50E0FA013197E032F10508F045
S1130640F6C0EC5CFF4F0C942B04EEE0F1E090E07C
S1130650880F991F880F991F880F991F2081318156
S1130660822B932B9183808380E280930001E2C0EC
S1130670EEE0F1E0982F9295969597702081318164
S1130680292B31832083282F22952F70E0E1F1E07C
S1130690908120FB90F98F70880F917E892B808345
S11306A080FF08C08EE091E00E94980180E1809371
S11306B00001C0C081E080930001BCC0809311019F
S11306C02091000130E08091100186958F7090E0B8
S11306D02817390724F482E080930001ABC08EE030
S11306E091E00E94980180E180930001A3C080936F
S11306F012012091000130E08091100186958F70E5
S113070090E02817390724F483E08093000192C015
S11307108EE091E00E94980180E1809300018AC0FC
S1130720809313012091000130E08091100186959F
S11307308F7090E02817390724F484E08093000137
S113074079C08EE091E00E94980180E180930001DD
S113075071C0809314012091000130E08091100158
S113076086958F7090E02817390724F485E08093EC
S1130770000160C08EE091E00E94980180E18093C6
S1130780000158C0809315012091000130E0809150
S1130790100186958F7090E02817390724F486E0BD
S11307A08093000147C08EE091E00E94980180E1AF
S11307B0809300013FC0809316012091000130E036
S11307C08091100186958F7090E02817390724F4E2
S11307D087E0809300012EC08EE091E00E94980192
S11307E080E18093000126C08093170120910001CD
S11307F030E08091100186958F7090E028173907BA
S113080024F488E08093000115C08EE091E00E94FA
S1130810980180E1809300010DC0809318018EE05F
S113082091E00E94980180E18093000103C080E17F
S113083080930001FF91EF91BF91AF919F918F91B0
S11308407F916F915F914F913F912F910F900FBEC8
S11308500F901F901895EE0FFF1F0590F491E02D57
S10908600994F894FFCF97
S105086610007C
S9030000FC
