:100000000C9434000C94FD020C9451000C9451009B
:100010000C9451000C9451000C9451000C9451001C
:100020000C9451000C9451000C9451000C9451000C
:100030000C9451000C9451000C9451000C945100FC
:100040000C9451000C9451000C9451000C945100EC
:100050000C9451000C9451000C9451000C945100DC
:100060000C9451000C94510011241FBECFEFD8E026
:10007000DEBFCDBF11E0A0E0B1E0E2E5F6E002C0F6
:1000800005900D92A632B107D9F721E0A6E2B1E0C2
:1000900001C01D92AC33B207E1F70E94C6020C9476
:1000A00027030C9400005298209A0895E89AE9E6F4
:1000B000F0E080818C7F808378940895229A239A3F
:1000C000259A2A9A2B982D988CB580658CBD8CB575
:1000D00083608CBD08958EBD0DB407FEFDCF87EC07
:1000E00090E00197F1F700C000008EB5089590935D
:1000F000C5008093C400E1ECF0E0808188618083DA
:10010000E2ECF0E08081866080830895E0ECF0E02E
:1001100080818823ECF78091C6000895E0ECF0E040
:10012000908195FFFDCF8093C6000895EF92FF92D6
:100130000F931F93CF93DF93FC0101900020E9F709
:1001400031977F01E81AF90A61F08C01C0E0D0E034
:10015000F80181918F010E948E002196EC16FD0618
:10016000B9F7DF91CF911F910F91FF90EF90089514
:10017000CF93DF93D82FC62F2A9882E00E946B007E
:100180008D2F0E946B008C2F0E946B002A9ADF91AA
:10019000CF910895CF93C82F2A9883E00E946B00D7
:1001A0008C2F0E946B008FEF0E946B002A9ACF91D8
:1001B00008951F93CF93DF93182FD62FC42F2A981B
:1001C00085E00E946B00812F0E946B008D2F0E94A2
:1001D0006B008C2F0E946B002A9ADF91CF911F91A8
:1001E00008952A980E946B008FEF0E946B002A9A54
:1001F0000895CF93C82F2A9880EC0E946B002A9A0A
:100200008AE68A95F1F700C02A9882E00E946B0086
:1002100088E20E946B0082E00E946B0080E90E94ED
:100220006B008C2F0E946B0083E00E946B002A9A67
:100230008AE20E94CA008C1719F0289A80E0A0C0B8
:1002400060E08CE00E94B80060E08DE00E94B800A1
:1002500060E280E60E94B80060E280E70E94B80099
:100260002A9882E00E946B0080E20E946B008FEF70
:100270000E946B0080EE0E946B002A9A2A9882E00E
:100280000E946B0084E20E946B008FEF0E946B0063
:1002900080EE0E946B002A9A2A9882E00E946B00EE
:1002A00080E00E946B00809101018695869586957D
:1002B0000E946B00809101018295880F807E0E94D0
:1002C0006B002A9A2A9882E00E946B0084E00E94C8
:1002D0006B00809101018695869586950E946B0042
:1002E000809101018295880F807E0E946B002A9A7E
:1002F0002A9882E00E946B0088E00E946B00809147
:1003000001018695869586950E946B00809101017A
:100310008295880F807E0E946B002A9A2A9882E03C
:100320000E946B0080E10E946B0080910101869524
:10033000869586950E946B00809101018295880FB9
:10034000807E0E946B002A9A2A9882E00E946B00AD
:1003500084E10E946B0080910101869586958695C7
:100360000E946B00809101018295880F807E0E941F
:100370006B002A9A60E08FE00E94B800289881E024
:10038000CF910895CF92DF92EF92FF920F931F9338
:10039000CF93DF931F92CDB7DEB76C0180EB0E9445
:1003A000F10089839981892F807496FD06C0998117
:1003B00099230CF05EC084E901C080E92A980E946C
:1003C0006B008FEF0E946B0028E0829FC001112418
:1003D000F601918380838FEF0E946B00282F229576
:1003E00026952770F60180819181822B91838083ED
:1003F0008FEF0E946B008FEF0E946B008FEF0E94C7
:100400006B00982F9F70292F220FF6018281817E29
:10041000822B8283298123FB222720F920FB80F96C
:1004200082839923A1F086010D5F1F4F9150E92E21
:10043000F12CF4E0EF0EF11CEC0CFD1C8FEF0E9490
:100440006B00F80181938F01EE15FF05B9F72A9A29
:10045000898186FF06C040E061E08CE20E94D900FD
:1004600005C040E062E08CE20E94D900898187707B
:100470008F5F0F90DF91CF911F910F91FF90EF90C1
:10048000DF90CF900895BF92CF92DF92EF92FF92CC
:100490000F931F93CF93DF931F92CDB7DEB76C01FD
:1004A00080EA0E94F1008983898182FF0AC08981E4
:1004B00084FF09C0898186FD5DC06894BB24B2F8C1
:1004C00005C0B12C03C06894BB24B1F82A988B2DC9
:1004D00080640E946B00F6018081918196958795DA
:1004E00096958795969587950E946B00F601808179
:1004F0008295880F807E0E946B0080E00E946B00D6
:1005000080E00E946B00F6018281F82EF694FF2DA8
:10051000FF70FF2E80FF05C08F2F80640E946B004C
:1005200018C08F2F0E946B00FF2099F086010D5F8D
:100530001F4FFA94EF2CF12C84E0E80EF11CEC0C28
:10054000FD1CF80181918F010E946B000E151F05A3
:10055000C1F72A9AF5E0FA95F1F700002A98B11050
:1005600002C0BB24B3948B2D80680E946B002A9A32
:100570008B2D01C080E00F90DF91CF911F910F91E3
:10058000FF90EF90DF90CF90BF9008958091000191
:1005900090E09093320180933101E3E3F1E08081B8
:1005A000807E826080830E9453000E94560087E60E
:1005B00090E00E9477000E945E0081E00E94F900B6
:1005C000882329F082E091E00E94960004C084E133
:1005D00091E00E9496008DE00E948E00C0ECD0E079
:1005E00001E311E098819923ECF30E948600F80161
:1005F0008383C8010E944302F5CF1F920F920FB66A
:100600000F9211242F933F934F935F936F937F9398
:100610008F939F93AF93BF93EF93FF9386E291E005
:100620000E94C201809129010E948E00FF91EF91EA
:10063000BF91AF919F918F917F916F915F914F91FA
:100640003F912F910F900FBE0F901F901895F89427
:02065000FFCFDA
:10065200102043616E20496E69742053554343450F
:100662005353210043616E20496E6974204641490B
:060672004C555245210029
:00000001FF
