S00F000063616E5F6275732E737265633A
S11300000C9464000C9400030C9481000C94810003
S11300100C9481000C9481000C9481000C94810058
S11300200C9481000C9481000C9481000C94810048
S11300300C9481000C9481000C9481000C94810038
S11300400C9481000C9481000C9429030C9481007D
S11300500C9481000C9481000C9481000C94810018
S11300600C9481000C948100B503CE03E7030004D3
S1130070190432044B0464046E046E046E046E04AA
S11300806E046E046E044E036E046E046E046E04FD
S11300906E046E046E046E046E046E046E046E04CC
S11300A06E046E046E0465036E046E046E046E04C6
S11300B06E046E046E046E046E046E046E046E04AC
S11300C06E046E046E04780311241FBECFEFD8E0D3
S11300D0DEBFCDBF11E0A0E0B1E0ECE1F9E002C089
S11300E005900D92A230B107D9F721E0A2E0B1E06A
S11300F001C01D92A931B207E1F70E94AB020C9432
S11301008C040C9400005298209A0895E89AE9E629
S1130110F0E080818C7F808378940895229A239ADA
S1130120259A2A9A2B982D988CB580658CBD8CB510
S113013083608CBD08958EBD0DB407FEFDCF87ECA2
S113014090E00197F1F700C000008EB508959093F8
S1130150C5008093C400E1ECF0E08081886980836D
S1130160E2ECF0E08081866080830895E0ECF0E0CA
S113017080818823ECF78091C6000895E0ECF0E0DC
S1130180908195FFFDCF8093C6000895CF92DF92B2
S1130190EF92FF920F931F93CF93DF93CDB7DEB708
S11301A02B970FB6F894DEBF0FBECDBFE982FA825B
S11301B00B831C832D833E834F83588769877A87FB
S11301C08B87C980DA8006950F708EEE0E94BE0080
S11301D0C6019695879596958795969587950E94DD
S11301E0BE00CC0CCC0CCC0CCC0CCC0C8B81817018
S11301F08295807F8C29802B0E94BE008B8180FD9C
S113020017C0E02EF12C1E141F0494F480E090E03B
S113021010E0E4E0F0E0EC0FFD1FE80FF91F80812F
S11302200E94BE001F5F812F90E08E159F058CF306
S11302302B960FB6F894DEBF0FBECDBFDF91CF91E2
S11302401F910F91FF90EF90DF90CF900895CF937F
S1130250DF93D82FC62F2A9882E00E949B008D2F0F
S11302600E949B008C2F0E949B002A9ADF91CF91C1
S11302700895CF93C82F2A9883E00E949B008C2F67
S11302800E949B008FEF0E949B002A9ACF910895B1
S11302901F93CF93DF93182FD62FC42F2A9885E06E
S11302A00E949B00812F0E949B008D2F0E949B0027
S11302B08C2F0E949B002A9ADF91CF911F91089561
S11302C02A980E949B008FEF0E949B002A9A08950F
S11302D0CF93C82F2A9880EC0E949B002A9A8AE622
S11302E08A95F1F700C02A9882E00E949B0088E278
S11302F00E949B0082E00E949B0080E90E949B0078
S11303008C2F0E949B0083E00E949B002A9A8AE221
S11303100E9439018C1719F0289A80E016C060E019
S11303208CE00E94270160E08DE00E94270160E6D6
S113033080E60E94270160E680E70E94270160E0D2
S11303408FE00E942701289881E0CF910895CF92F1
S1130350DF92EF92FF920F931F93CF93DF931F923D
S1130360CDB7DEB76C0180EB0E946001898399816F
S1130370892F807496FD06C0998199230CF05EC084
S113038084E901C080E92A980E949B008FEF0E94B3
S11303909B0028E0829FC0011124F6019183808391
S11303A08FEF0E949B00282F229526952770F60137
S11303B080819181822B918380838FEF0E949B00A7
S11303C08FEF0E949B008FEF0E949B00982F9F70DD
S11303D0292F220FF6018281817E822B828329813B
S11303E023FB222720F920FB80F982839923A1F0A3
S11303F086010D5F1F4F9150E92EF12CF4E0EF0EB2
S1130400F11CEC0CFD1C8FEF0E949B00F801819302
S11304108F01EE15FF05B9F72A9A898186FF06C078
S113042040E061E08CE20E94480105C040E062E0E7
S11304308CE20E944801898187708F5F0F90DF9161
S1130440CF911F910F91FF90EF90DF90CF9008957F
S1130450BF92CF92DF92EF92FF920F931F93CF93AD
S1130460DF931F92CDB7DEB76C0180EA0E94600172
S11304708983898182FF0AC0898184FF09C08981B7
S113048086FD5DC06894BB24B2F805C0B12C03C0DE
S11304906894BB24B1F82A988B2D80640E949B0039
S11304A0F601808191819695879596958795969585
S11304B087950E949B00F60180818295880F807E3B
S11304C00E949B0080E00E949B0080E00E949B00B1
S11304D0F6018281F82EF694FF2DFF70FF2E80FF27
S11304E005C08F2F80640E949B0018C08F2F0E942C
S11304F09B00FF2099F086010D5F1F4FFA94EF2CAB
S1130500F12C84E0E80EF11CEC0CFD1CF801819147
S11305108F010E949B000E151F05C1F72A9AF5E072
S1130520FA95F1F700002A98B11002C0BB24B394E5
S11305308B2D80680E949B002A9A8B2D01C080E03D
S11305400F90DF91CF911F910F91FF90EF90DF906B
S1130550CF90BF9008950E9483000E94860087E692
S113056090E00E94A7000E948E0081E00E94680132
S11305708823A9F08FEF0E94BE000F2EF3E0AF2E68
S1130580F1E0BF2EF02DC5E0D1E00F2EF6E0CF2E26
S1130590F1E0DF2EF02D6894882483F804C080E015
S11305A00E94BE00EACF809102018823E1F39FB646
S11305B0F894E0900301F09004010091050110917A
S11305C006012091070130910801409109015091E1
S11305D00A0160910B0170910C0180910D010E9440
S11305E0C600F501118210828881807E8883F6011D
S11305F0882D11928A95E9F7109202019FBED3CFFC
S11306001F920F920FB60F9211242F933F934F9383
S11306105F936F937F938F939F93AF93BF93EF9366
S1130620FF9383E091E00E94A70181E0809302019F
S1130630FF91EF91BF91AF919F918F917F916F91B6
S11306405F914F913F912F910F900FBE0F901F908C
S113065018951F920F920FB60F921124EF92FF92EA
S11306600F931F932F933F934F935F936F937F93B6
S11306708F939F93AF93BF93EF93FF930E94B60022
S1130680E09100014E2F50E0FA013197E033F1057B
S113069008F024C1EC5CFF4F0C9486048E3E09F0F4
S11306A020C110920F0110920E01E0E1F1E080816F
S11306B0807E808388E0E1E1F1E0DF011D928A958C
S11306C0E9F780E2809300010CC1EEE0F1E090E0F4
S11306D0880F991F880F991F880F991F20813181D6
S11306E0822B932B9183808380E380930001F9C054
S11306F0EEE0F1E0982F92959695977020813181E4
S1130700292B31832083282F22952F70E0E1F1E0FB
S1130710908120FB90F98F70880F917E892B8083C4
S113072080FF1FC0E0900E01F0900F01082F109180
S11307301101209112013091130140911401509143
S113074015016091160170911701809118010E94A2
S1130750C6008EE091E00E94280280E180930001AF
S1130760C0C081E080930001BCC08093110120913E
S1130770000130E08091100186958F7090E0281779
S1130780390724F482E080930001ABC08EE091E04D
S11307900E94280280E180930001A3C0809312018B
S11307A02091000130E08091100186958F7090E0D7
S11307B02817390724F483E08093000192C08EE067
S11307C091E00E94280280E1809300018AC0809316
S11307D013012091000130E08091100186958F7003
S11307E090E02817390724F484E08093000179C04D
S11307F08EE091E00E94280280E18093000171C0A4
S1130800809314012091000130E0809110018695BD
S11308108F7090E02817390724F485E08093000155
S113082060C08EE091E00E94280280E18093000184
S113083058C0809315012091000130E0809110018F
S113084086958F7090E02817390724F486E080930A
S1130850000147C08EE091E00E94280280E180936D
S113086000013FC0809316012091000130E0809187
S1130870100186958F7090E02817390724F487E0DB
S1130880809300012EC08EE091E00E94280280E156
S11308908093000126C0809317012091000130E06D
S11308A08091100186958F7090E02817390724F401
S11308B088E08093000115C08EE091E00E94280238
S11308C080E1809300010DC0809318018EE091E0D7
S11308D00E94280280E18093000103C080E180939C
S11308E00001FF91EF91BF91AF919F918F917F9103
S11308F06F915F914F913F912F911F910F91FF90B5
S1130900EF900F900FBE0F901F901895EE0FFF1FE2
S10F09100590F491E02D0994F894FFCFB9
S105091C1000C5
S9030000FC
